{
	"contracts/TokenFarm.sol": {
		"TokenFarm": {
			"abi": [
				{
					"inputs": [
						{
							"internalType": "contract StellartToken",
							"name": "_stellartToken",
							"type": "address"
						},
						{
							"internalType": "contract JamToken",
							"name": "_jamToken",
							"type": "address"
						}
					],
					"stateMutability": "nonpayable",
					"type": "constructor"
				},
				{
					"inputs": [
						{
							"internalType": "address",
							"name": "",
							"type": "address"
						}
					],
					"name": "hasStaked",
					"outputs": [
						{
							"internalType": "bool",
							"name": "",
							"type": "bool"
						}
					],
					"stateMutability": "view",
					"type": "function"
				},
				{
					"inputs": [
						{
							"internalType": "address",
							"name": "",
							"type": "address"
						}
					],
					"name": "isStaking",
					"outputs": [
						{
							"internalType": "bool",
							"name": "",
							"type": "bool"
						}
					],
					"stateMutability": "view",
					"type": "function"
				},
				{
					"inputs": [],
					"name": "issueTokens",
					"outputs": [],
					"stateMutability": "nonpayable",
					"type": "function"
				},
				{
					"inputs": [],
					"name": "jamToken",
					"outputs": [
						{
							"internalType": "contract JamToken",
							"name": "",
							"type": "address"
						}
					],
					"stateMutability": "view",
					"type": "function"
				},
				{
					"inputs": [],
					"name": "name",
					"outputs": [
						{
							"internalType": "string",
							"name": "",
							"type": "string"
						}
					],
					"stateMutability": "view",
					"type": "function"
				},
				{
					"inputs": [],
					"name": "owner",
					"outputs": [
						{
							"internalType": "address",
							"name": "",
							"type": "address"
						}
					],
					"stateMutability": "view",
					"type": "function"
				},
				{
					"inputs": [
						{
							"internalType": "uint256",
							"name": "_amount",
							"type": "uint256"
						}
					],
					"name": "stakeTokens",
					"outputs": [],
					"stateMutability": "nonpayable",
					"type": "function"
				},
				{
					"inputs": [
						{
							"internalType": "uint256",
							"name": "",
							"type": "uint256"
						}
					],
					"name": "stakers",
					"outputs": [
						{
							"internalType": "address",
							"name": "",
							"type": "address"
						}
					],
					"stateMutability": "view",
					"type": "function"
				},
				{
					"inputs": [
						{
							"internalType": "address",
							"name": "",
							"type": "address"
						}
					],
					"name": "stakingBalance",
					"outputs": [
						{
							"internalType": "uint256",
							"name": "",
							"type": "uint256"
						}
					],
					"stateMutability": "view",
					"type": "function"
				},
				{
					"inputs": [],
					"name": "stellartToken",
					"outputs": [
						{
							"internalType": "contract StellartToken",
							"name": "",
							"type": "address"
						}
					],
					"stateMutability": "view",
					"type": "function"
				},
				{
					"inputs": [],
					"name": "unstakeTokens",
					"outputs": [],
					"stateMutability": "nonpayable",
					"type": "function"
				}
			],
			"devdoc": {
				"kind": "dev",
				"methods": {},
				"version": 1
			},
			"evm": {
				"assembly": "    /* \"contracts/TokenFarm.sol\":123:2482  contract TokenFarm {\r... */\n  mstore(0x40, 0x80)\n    /* \"contracts/TokenFarm.sol\":182:224  string public name = \"Stellart Token Farm\" */\n  mload(0x40)\n  dup1\n  0x40\n  add\n  0x40\n  mstore\n  dup1\n  0x13\n  dup2\n  mstore\n  0x20\n  add\n  0x5374656c6c61727420546f6b656e204661726d00000000000000000000000000\n  dup2\n  mstore\n  pop\n  0x00\n  swap1\n  dup1\n  mload\n  swap1\n  0x20\n  add\n  swap1\n  tag_1\n  swap3\n  swap2\n  swap1\n  tag_2\n  jump\t// in\ntag_1:\n  pop\n    /* \"contracts/TokenFarm.sol\":563:741  constructor(StellartToken _stellartToken, JamToken _jamToken){\r... */\n  callvalue\n  dup1\n  iszero\n  tag_3\n  jumpi\n  0x00\n  dup1\n  revert\ntag_3:\n  pop\n  mload(0x40)\n  sub(codesize, bytecodeSize)\n  dup1\n  bytecodeSize\n  dup4\n  codecopy\n  dup2\n  dup2\n  add\n  0x40\n  mstore\n  dup2\n  add\n  swap1\n  tag_4\n  swap2\n  swap1\n  tag_5\n  jump\t// in\ntag_4:\n    /* \"contracts/TokenFarm.sol\":657:671  _stellartToken */\n  dup2\n    /* \"contracts/TokenFarm.sol\":641:654  stellartToken */\n  0x03\n  0x00\n    /* \"contracts/TokenFarm.sol\":641:671  stellartToken = _stellartToken */\n  0x0100\n  exp\n  dup2\n  sload\n  dup2\n  0xffffffffffffffffffffffffffffffffffffffff\n  mul\n  not\n  and\n  swap1\n  dup4\n  0xffffffffffffffffffffffffffffffffffffffff\n  and\n  mul\n  or\n  swap1\n  sstore\n  pop\n    /* \"contracts/TokenFarm.sol\":693:702  _jamToken */\n  dup1\n    /* \"contracts/TokenFarm.sol\":682:690  jamToken */\n  0x02\n  0x00\n    /* \"contracts/TokenFarm.sol\":682:702  jamToken = _jamToken */\n  0x0100\n  exp\n  dup2\n  sload\n  dup2\n  0xffffffffffffffffffffffffffffffffffffffff\n  mul\n  not\n  and\n  swap1\n  dup4\n  0xffffffffffffffffffffffffffffffffffffffff\n  and\n  mul\n  or\n  swap1\n  sstore\n  pop\n    /* \"contracts/TokenFarm.sol\":721:731  msg.sender */\n  caller\n    /* \"contracts/TokenFarm.sol\":713:718  owner */\n  0x01\n  0x00\n    /* \"contracts/TokenFarm.sol\":713:731  owner = msg.sender */\n  0x0100\n  exp\n  dup2\n  sload\n  dup2\n  0xffffffffffffffffffffffffffffffffffffffff\n  mul\n  not\n  and\n  swap1\n  dup4\n  0xffffffffffffffffffffffffffffffffffffffff\n  and\n  mul\n  or\n  swap1\n  sstore\n  pop\n    /* \"contracts/TokenFarm.sol\":563:741  constructor(StellartToken _stellartToken, JamToken _jamToken){\r... */\n  pop\n  pop\n    /* \"contracts/TokenFarm.sol\":123:2482  contract TokenFarm {\r... */\n  jump(tag_8)\ntag_2:\n  dup3\n  dup1\n  sload\n  tag_9\n  swap1\n  tag_10\n  jump\t// in\ntag_9:\n  swap1\n  0x00\n  mstore\n  keccak256(0x00, 0x20)\n  swap1\n  0x1f\n  add\n  0x20\n  swap1\n  div\n  dup2\n  add\n  swap3\n  dup3\n  tag_12\n  jumpi\n  0x00\n  dup6\n  sstore\n  jump(tag_11)\ntag_12:\n  dup3\n  0x1f\n  lt\n  tag_13\n  jumpi\n  dup1\n  mload\n  not(0xff)\n  and\n  dup4\n  dup1\n  add\n  or\n  dup6\n  sstore\n  jump(tag_11)\ntag_13:\n  dup3\n  dup1\n  add\n  0x01\n  add\n  dup6\n  sstore\n  dup3\n  iszero\n  tag_11\n  jumpi\n  swap2\n  dup3\n  add\ntag_14:\n  dup3\n  dup2\n  gt\n  iszero\n  tag_15\n  jumpi\n  dup3\n  mload\n  dup3\n  sstore\n  swap2\n  0x20\n  add\n  swap2\n  swap1\n  0x01\n  add\n  swap1\n  jump(tag_14)\ntag_15:\ntag_11:\n  pop\n  swap1\n  pop\n  tag_16\n  swap2\n  swap1\n  tag_17\n  jump\t// in\ntag_16:\n  pop\n  swap1\n  jump\t// out\ntag_17:\ntag_18:\n  dup1\n  dup3\n  gt\n  iszero\n  tag_19\n  jumpi\n  0x00\n  dup2\n  0x00\n  swap1\n  sstore\n  pop\n  0x01\n  add\n  jump(tag_18)\ntag_19:\n  pop\n  swap1\n  jump\t// out\n    /* \"#utility.yul\":7:182   */\ntag_21:\n    /* \"#utility.yul\":80:85   */\n  0x00\n    /* \"#utility.yul\":111:117   */\n  dup2\n    /* \"#utility.yul\":105:118   */\n  mload\n    /* \"#utility.yul\":96:118   */\n  swap1\n  pop\n    /* \"#utility.yul\":127:176   */\n  tag_23\n    /* \"#utility.yul\":170:175   */\n  dup2\n    /* \"#utility.yul\":127:176   */\n  tag_24\n  jump\t// in\ntag_23:\n    /* \"#utility.yul\":86:182   */\n  swap3\n  swap2\n  pop\n  pop\n  jump\t// out\n    /* \"#utility.yul\":188:373   */\ntag_25:\n    /* \"#utility.yul\":266:271   */\n  0x00\n    /* \"#utility.yul\":297:303   */\n  dup2\n    /* \"#utility.yul\":291:304   */\n  mload\n    /* \"#utility.yul\":282:304   */\n  swap1\n  pop\n    /* \"#utility.yul\":313:367   */\n  tag_27\n    /* \"#utility.yul\":361:366   */\n  dup2\n    /* \"#utility.yul\":313:367   */\n  tag_28\n  jump\t// in\ntag_27:\n    /* \"#utility.yul\":272:373   */\n  swap3\n  swap2\n  pop\n  pop\n  jump\t// out\n    /* \"#utility.yul\":379:960   */\ntag_5:\n    /* \"#utility.yul\":495:501   */\n  0x00\n    /* \"#utility.yul\":503:509   */\n  dup1\n    /* \"#utility.yul\":552:554   */\n  0x40\n    /* \"#utility.yul\":540:549   */\n  dup4\n    /* \"#utility.yul\":531:538   */\n  dup6\n    /* \"#utility.yul\":527:550   */\n  sub\n    /* \"#utility.yul\":523:555   */\n  slt\n    /* \"#utility.yul\":520:522   */\n  iszero\n  tag_30\n  jumpi\n    /* \"#utility.yul\":558:637   */\n  tag_31\n  tag_32\n  jump\t// in\ntag_31:\n    /* \"#utility.yul\":520:522   */\ntag_30:\n    /* \"#utility.yul\":678:679   */\n  0x00\n    /* \"#utility.yul\":703:788   */\n  tag_33\n    /* \"#utility.yul\":780:787   */\n  dup6\n    /* \"#utility.yul\":771:777   */\n  dup3\n    /* \"#utility.yul\":760:769   */\n  dup7\n    /* \"#utility.yul\":756:778   */\n  add\n    /* \"#utility.yul\":703:788   */\n  tag_25\n  jump\t// in\ntag_33:\n    /* \"#utility.yul\":693:788   */\n  swap3\n  pop\n    /* \"#utility.yul\":649:798   */\n  pop\n    /* \"#utility.yul\":837:839   */\n  0x20\n    /* \"#utility.yul\":863:943   */\n  tag_34\n    /* \"#utility.yul\":935:942   */\n  dup6\n    /* \"#utility.yul\":926:932   */\n  dup3\n    /* \"#utility.yul\":915:924   */\n  dup7\n    /* \"#utility.yul\":911:933   */\n  add\n    /* \"#utility.yul\":863:943   */\n  tag_21\n  jump\t// in\ntag_34:\n    /* \"#utility.yul\":853:943   */\n  swap2\n  pop\n    /* \"#utility.yul\":808:953   */\n  pop\n    /* \"#utility.yul\":510:960   */\n  swap3\n  pop\n  swap3\n  swap1\n  pop\n  jump\t// out\n    /* \"#utility.yul\":1047:1143   */\ntag_37:\n    /* \"#utility.yul\":1084:1091   */\n  0x00\n    /* \"#utility.yul\":1113:1137   */\n  tag_39\n    /* \"#utility.yul\":1131:1136   */\n  dup3\n    /* \"#utility.yul\":1113:1137   */\n  tag_40\n  jump\t// in\ntag_39:\n    /* \"#utility.yul\":1102:1137   */\n  swap1\n  pop\n    /* \"#utility.yul\":1092:1143   */\n  swap2\n  swap1\n  pop\n  jump\t// out\n    /* \"#utility.yul\":1149:1261   */\ntag_41:\n    /* \"#utility.yul\":1202:1209   */\n  0x00\n    /* \"#utility.yul\":1231:1255   */\n  tag_43\n    /* \"#utility.yul\":1249:1254   */\n  dup3\n    /* \"#utility.yul\":1231:1255   */\n  tag_37\n  jump\t// in\ntag_43:\n    /* \"#utility.yul\":1220:1255   */\n  swap1\n  pop\n    /* \"#utility.yul\":1210:1261   */\n  swap2\n  swap1\n  pop\n  jump\t// out\n    /* \"#utility.yul\":1267:1384   */\ntag_44:\n    /* \"#utility.yul\":1325:1332   */\n  0x00\n    /* \"#utility.yul\":1354:1378   */\n  tag_46\n    /* \"#utility.yul\":1372:1377   */\n  dup3\n    /* \"#utility.yul\":1354:1378   */\n  tag_37\n  jump\t// in\ntag_46:\n    /* \"#utility.yul\":1343:1378   */\n  swap1\n  pop\n    /* \"#utility.yul\":1333:1384   */\n  swap2\n  swap1\n  pop\n  jump\t// out\n    /* \"#utility.yul\":1390:1516   */\ntag_40:\n    /* \"#utility.yul\":1427:1434   */\n  0x00\n    /* \"#utility.yul\":1467:1509   */\n  0xffffffffffffffffffffffffffffffffffffffff\n    /* \"#utility.yul\":1460:1465   */\n  dup3\n    /* \"#utility.yul\":1456:1510   */\n  and\n    /* \"#utility.yul\":1445:1510   */\n  swap1\n  pop\n    /* \"#utility.yul\":1435:1516   */\n  swap2\n  swap1\n  pop\n  jump\t// out\n    /* \"#utility.yul\":1522:1842   */\ntag_10:\n    /* \"#utility.yul\":1566:1572   */\n  0x00\n    /* \"#utility.yul\":1603:1604   */\n  0x02\n    /* \"#utility.yul\":1597:1601   */\n  dup3\n    /* \"#utility.yul\":1593:1605   */\n  div\n    /* \"#utility.yul\":1583:1605   */\n  swap1\n  pop\n    /* \"#utility.yul\":1650:1651   */\n  0x01\n    /* \"#utility.yul\":1644:1648   */\n  dup3\n    /* \"#utility.yul\":1640:1652   */\n  and\n    /* \"#utility.yul\":1671:1689   */\n  dup1\n    /* \"#utility.yul\":1661:1663   */\n  tag_49\n  jumpi\n    /* \"#utility.yul\":1727:1731   */\n  0x7f\n    /* \"#utility.yul\":1719:1725   */\n  dup3\n    /* \"#utility.yul\":1715:1732   */\n  and\n    /* \"#utility.yul\":1705:1732   */\n  swap2\n  pop\n    /* \"#utility.yul\":1661:1663   */\ntag_49:\n    /* \"#utility.yul\":1789:1791   */\n  0x20\n    /* \"#utility.yul\":1781:1787   */\n  dup3\n    /* \"#utility.yul\":1778:1792   */\n  lt\n    /* \"#utility.yul\":1758:1776   */\n  dup2\n    /* \"#utility.yul\":1755:1793   */\n  eq\n    /* \"#utility.yul\":1752:1754   */\n  iszero\n  tag_50\n  jumpi\n    /* \"#utility.yul\":1808:1826   */\n  tag_51\n  tag_52\n  jump\t// in\ntag_51:\n    /* \"#utility.yul\":1752:1754   */\ntag_50:\n    /* \"#utility.yul\":1573:1842   */\n  pop\n  swap2\n  swap1\n  pop\n  jump\t// out\n    /* \"#utility.yul\":1848:2028   */\ntag_52:\n    /* \"#utility.yul\":1896:1973   */\n  0x4e487b7100000000000000000000000000000000000000000000000000000000\n    /* \"#utility.yul\":1893:1894   */\n  0x00\n    /* \"#utility.yul\":1886:1974   */\n  mstore\n    /* \"#utility.yul\":1993:1997   */\n  0x22\n    /* \"#utility.yul\":1990:1991   */\n  0x04\n    /* \"#utility.yul\":1983:1998   */\n  mstore\n    /* \"#utility.yul\":2017:2021   */\n  0x24\n    /* \"#utility.yul\":2014:2015   */\n  0x00\n    /* \"#utility.yul\":2007:2022   */\n  revert\n    /* \"#utility.yul\":2157:2274   */\ntag_32:\n    /* \"#utility.yul\":2266:2267   */\n  0x00\n    /* \"#utility.yul\":2263:2264   */\n  dup1\n    /* \"#utility.yul\":2256:2268   */\n  revert\n    /* \"#utility.yul\":2280:2434   */\ntag_24:\n    /* \"#utility.yul\":2369:2409   */\n  tag_58\n    /* \"#utility.yul\":2403:2408   */\n  dup2\n    /* \"#utility.yul\":2369:2409   */\n  tag_41\n  jump\t// in\ntag_58:\n    /* \"#utility.yul\":2362:2367   */\n  dup2\n    /* \"#utility.yul\":2359:2410   */\n  eq\n    /* \"#utility.yul\":2349:2351   */\n  tag_59\n  jumpi\n    /* \"#utility.yul\":2424:2425   */\n  0x00\n    /* \"#utility.yul\":2421:2422   */\n  dup1\n    /* \"#utility.yul\":2414:2426   */\n  revert\n    /* \"#utility.yul\":2349:2351   */\ntag_59:\n    /* \"#utility.yul\":2339:2434   */\n  pop\n  jump\t// out\n    /* \"#utility.yul\":2440:2604   */\ntag_28:\n    /* \"#utility.yul\":2534:2579   */\n  tag_61\n    /* \"#utility.yul\":2573:2578   */\n  dup2\n    /* \"#utility.yul\":2534:2579   */\n  tag_44\n  jump\t// in\ntag_61:\n    /* \"#utility.yul\":2527:2532   */\n  dup2\n    /* \"#utility.yul\":2524:2580   */\n  eq\n    /* \"#utility.yul\":2514:2516   */\n  tag_62\n  jumpi\n    /* \"#utility.yul\":2594:2595   */\n  0x00\n    /* \"#utility.yul\":2591:2592   */\n  dup1\n    /* \"#utility.yul\":2584:2596   */\n  revert\n    /* \"#utility.yul\":2514:2516   */\ntag_62:\n    /* \"#utility.yul\":2504:2604   */\n  pop\n  jump\t// out\n    /* \"contracts/TokenFarm.sol\":123:2482  contract TokenFarm {\r... */\ntag_8:\n  dataSize(sub_0)\n  dup1\n  dataOffset(sub_0)\n  0x00\n  codecopy\n  0x00\n  return\nstop\n\nsub_0: assembly {\n        /* \"contracts/TokenFarm.sol\":123:2482  contract TokenFarm {\r... */\n      mstore(0x40, 0x80)\n      callvalue\n      dup1\n      iszero\n      tag_1\n      jumpi\n      0x00\n      dup1\n      revert\n    tag_1:\n      pop\n      jumpi(tag_2, lt(calldatasize, 0x04))\n      shr(0xe0, calldataload(0x00))\n      dup1\n      0x8da5cb5b\n      gt\n      tag_14\n      jumpi\n      dup1\n      0x8da5cb5b\n      eq\n      tag_8\n      jumpi\n      dup1\n      0x92773cdd\n      eq\n      tag_9\n      jumpi\n      dup1\n      0xa5ce413b\n      eq\n      tag_10\n      jumpi\n      dup1\n      0xc93c8f34\n      eq\n      tag_11\n      jumpi\n      dup1\n      0xf416d760\n      eq\n      tag_12\n      jumpi\n      dup1\n      0xfd5e6dd1\n      eq\n      tag_13\n      jumpi\n      jump(tag_2)\n    tag_14:\n      dup1\n      0x06fdde03\n      eq\n      tag_3\n      jumpi\n      dup1\n      0x45bc78ab\n      eq\n      tag_4\n      jumpi\n      dup1\n      0x60ab5852\n      eq\n      tag_5\n      jumpi\n      dup1\n      0x6f49712b\n      eq\n      tag_6\n      jumpi\n      dup1\n      0x7547c7a3\n      eq\n      tag_7\n      jumpi\n    tag_2:\n      0x00\n      dup1\n      revert\n        /* \"contracts/TokenFarm.sol\":182:224  string public name = \"Stellart Token Farm\" */\n    tag_3:\n      tag_15\n      tag_16\n      jump\t// in\n    tag_15:\n      mload(0x40)\n      tag_17\n      swap2\n      swap1\n      tag_18\n      jump\t// in\n    tag_17:\n      mload(0x40)\n      dup1\n      swap2\n      sub\n      swap1\n      return\n        /* \"contracts/TokenFarm.sol\":393:439  mapping(address => uint) public stakingBalance */\n    tag_4:\n      tag_19\n      0x04\n      dup1\n      calldatasize\n      sub\n      dup2\n      add\n      swap1\n      tag_20\n      swap2\n      swap1\n      tag_21\n      jump\t// in\n    tag_20:\n      tag_22\n      jump\t// in\n    tag_19:\n      mload(0x40)\n      tag_23\n      swap2\n      swap1\n      tag_24\n      jump\t// in\n    tag_23:\n      mload(0x40)\n      dup1\n      swap2\n      sub\n      swap1\n      return\n        /* \"contracts/TokenFarm.sol\":2005:2477  function issueTokens() public {\r... */\n    tag_5:\n      tag_25\n      tag_26\n      jump\t// in\n    tag_25:\n      stop\n        /* \"contracts/TokenFarm.sol\":494:535  mapping(address => bool) public isStaking */\n    tag_6:\n      tag_27\n      0x04\n      dup1\n      calldatasize\n      sub\n      dup2\n      add\n      swap1\n      tag_28\n      swap2\n      swap1\n      tag_21\n      jump\t// in\n    tag_28:\n      tag_29\n      jump\t// in\n    tag_27:\n      mload(0x40)\n      tag_30\n      swap2\n      swap1\n      tag_31\n      jump\t// in\n    tag_30:\n      mload(0x40)\n      dup1\n      swap2\n      sub\n      swap1\n      return\n        /* \"contracts/TokenFarm.sol\":772:1416  function stakeTokens(uint _amount) public {\r... */\n    tag_7:\n      tag_32\n      0x04\n      dup1\n      calldatasize\n      sub\n      dup2\n      add\n      swap1\n      tag_33\n      swap2\n      swap1\n      tag_34\n      jump\t// in\n    tag_33:\n      tag_35\n      jump\t// in\n    tag_32:\n      stop\n        /* \"contracts/TokenFarm.sol\":231:251  address public owner */\n    tag_8:\n      tag_36\n      tag_37\n      jump\t// in\n    tag_36:\n      mload(0x40)\n      tag_38\n      swap2\n      swap1\n      tag_39\n      jump\t// in\n    tag_38:\n      mload(0x40)\n      dup1\n      swap2\n      sub\n      swap1\n      return\n        /* \"contracts/TokenFarm.sol\":289:323  StellartToken public stellartToken */\n    tag_9:\n      tag_40\n      tag_41\n      jump\t// in\n    tag_40:\n      mload(0x40)\n      tag_42\n      swap2\n      swap1\n      tag_43\n      jump\t// in\n    tag_42:\n      mload(0x40)\n      dup1\n      swap2\n      sub\n      swap1\n      return\n        /* \"contracts/TokenFarm.sol\":1463:1951  function unstakeTokens() public {\r... */\n    tag_10:\n      tag_44\n      tag_45\n      jump\t// in\n    tag_44:\n      stop\n        /* \"contracts/TokenFarm.sol\":446:487  mapping(address => bool) public hasStaked */\n    tag_11:\n      tag_46\n      0x04\n      dup1\n      calldatasize\n      sub\n      dup2\n      add\n      swap1\n      tag_47\n      swap2\n      swap1\n      tag_21\n      jump\t// in\n    tag_47:\n      tag_48\n      jump\t// in\n    tag_46:\n      mload(0x40)\n      tag_49\n      swap2\n      swap1\n      tag_31\n      jump\t// in\n    tag_49:\n      mload(0x40)\n      dup1\n      swap2\n      sub\n      swap1\n      return\n        /* \"contracts/TokenFarm.sol\":258:282  JamToken public jamToken */\n    tag_12:\n      tag_50\n      tag_51\n      jump\t// in\n    tag_50:\n      mload(0x40)\n      tag_52\n      swap2\n      swap1\n      tag_53\n      jump\t// in\n    tag_52:\n      mload(0x40)\n      dup1\n      swap2\n      sub\n      swap1\n      return\n        /* \"contracts/TokenFarm.sol\":361:386  address [] public stakers */\n    tag_13:\n      tag_54\n      0x04\n      dup1\n      calldatasize\n      sub\n      dup2\n      add\n      swap1\n      tag_55\n      swap2\n      swap1\n      tag_34\n      jump\t// in\n    tag_55:\n      tag_56\n      jump\t// in\n    tag_54:\n      mload(0x40)\n      tag_57\n      swap2\n      swap1\n      tag_39\n      jump\t// in\n    tag_57:\n      mload(0x40)\n      dup1\n      swap2\n      sub\n      swap1\n      return\n        /* \"contracts/TokenFarm.sol\":182:224  string public name = \"Stellart Token Farm\" */\n    tag_16:\n      0x00\n      dup1\n      sload\n      tag_58\n      swap1\n      tag_59\n      jump\t// in\n    tag_58:\n      dup1\n      0x1f\n      add\n      0x20\n      dup1\n      swap2\n      div\n      mul\n      0x20\n      add\n      mload(0x40)\n      swap1\n      dup2\n      add\n      0x40\n      mstore\n      dup1\n      swap3\n      swap2\n      swap1\n      dup2\n      dup2\n      mstore\n      0x20\n      add\n      dup3\n      dup1\n      sload\n      tag_60\n      swap1\n      tag_59\n      jump\t// in\n    tag_60:\n      dup1\n      iszero\n      tag_61\n      jumpi\n      dup1\n      0x1f\n      lt\n      tag_62\n      jumpi\n      0x0100\n      dup1\n      dup4\n      sload\n      div\n      mul\n      dup4\n      mstore\n      swap2\n      0x20\n      add\n      swap2\n      jump(tag_61)\n    tag_62:\n      dup3\n      add\n      swap2\n      swap1\n      0x00\n      mstore\n      keccak256(0x00, 0x20)\n      swap1\n    tag_63:\n      dup2\n      sload\n      dup2\n      mstore\n      swap1\n      0x01\n      add\n      swap1\n      0x20\n      add\n      dup1\n      dup4\n      gt\n      tag_63\n      jumpi\n      dup3\n      swap1\n      sub\n      0x1f\n      and\n      dup3\n      add\n      swap2\n    tag_61:\n      pop\n      pop\n      pop\n      pop\n      pop\n      dup2\n      jump\t// out\n        /* \"contracts/TokenFarm.sol\":393:439  mapping(address => uint) public stakingBalance */\n    tag_22:\n      mstore(0x20, 0x05)\n      dup1\n      0x00\n      mstore\n      keccak256(0x00, 0x40)\n      0x00\n      swap2\n      pop\n      swap1\n      pop\n      sload\n      dup2\n      jump\t// out\n        /* \"contracts/TokenFarm.sol\":2005:2477  function issueTokens() public {\r... */\n    tag_26:\n        /* \"contracts/TokenFarm.sol\":2108:2113  owner */\n      0x01\n      0x00\n      swap1\n      sload\n      swap1\n      0x0100\n      exp\n      swap1\n      div\n      0xffffffffffffffffffffffffffffffffffffffff\n      and\n        /* \"contracts/TokenFarm.sol\":2094:2113  msg.sender == owner */\n      0xffffffffffffffffffffffffffffffffffffffff\n      and\n        /* \"contracts/TokenFarm.sol\":2094:2104  msg.sender */\n      caller\n        /* \"contracts/TokenFarm.sol\":2094:2113  msg.sender == owner */\n      0xffffffffffffffffffffffffffffffffffffffff\n      and\n      eq\n        /* \"contracts/TokenFarm.sol\":2086:2134  require(msg.sender == owner, \"No eres el owner\") */\n      tag_65\n      jumpi\n      mload(0x40)\n      0x08c379a000000000000000000000000000000000000000000000000000000000\n      dup2\n      mstore\n      0x04\n      add\n      tag_66\n      swap1\n      tag_67\n      jump\t// in\n    tag_66:\n      mload(0x40)\n      dup1\n      swap2\n      sub\n      swap1\n      revert\n    tag_65:\n        /* \"contracts/TokenFarm.sol\":2231:2237  uint i */\n      0x00\n        /* \"contracts/TokenFarm.sol\":2227:2466  for(uint i=0; i< stakers.length; i++){\r... */\n    tag_68:\n        /* \"contracts/TokenFarm.sol\":2244:2251  stakers */\n      0x04\n        /* \"contracts/TokenFarm.sol\":2244:2258  stakers.length */\n      dup1\n      sload\n      swap1\n      pop\n        /* \"contracts/TokenFarm.sol\":2241:2242  i */\n      dup2\n        /* \"contracts/TokenFarm.sol\":2241:2258  i< stakers.length */\n      lt\n        /* \"contracts/TokenFarm.sol\":2227:2466  for(uint i=0; i< stakers.length; i++){\r... */\n      iszero\n      tag_69\n      jumpi\n        /* \"contracts/TokenFarm.sol\":2277:2294  address recipient */\n      0x00\n        /* \"contracts/TokenFarm.sol\":2297:2304  stakers */\n      0x04\n        /* \"contracts/TokenFarm.sol\":2305:2306  i */\n      dup3\n        /* \"contracts/TokenFarm.sol\":2297:2307  stakers[i] */\n      dup2\n      sload\n      dup2\n      lt\n      tag_71\n      jumpi\n      tag_72\n      tag_73\n      jump\t// in\n    tag_72:\n    tag_71:\n      swap1\n      0x00\n      mstore\n      keccak256(0x00, 0x20)\n      add\n      0x00\n      swap1\n      sload\n      swap1\n      0x0100\n      exp\n      swap1\n      div\n      0xffffffffffffffffffffffffffffffffffffffff\n      and\n        /* \"contracts/TokenFarm.sol\":2277:2307  address recipient = stakers[i] */\n      swap1\n      pop\n        /* \"contracts/TokenFarm.sol\":2318:2330  uint balance */\n      0x00\n        /* \"contracts/TokenFarm.sol\":2333:2347  stakingBalance */\n      0x05\n        /* \"contracts/TokenFarm.sol\":2333:2358  stakingBalance[recipient] */\n      0x00\n        /* \"contracts/TokenFarm.sol\":2348:2357  recipient */\n      dup4\n        /* \"contracts/TokenFarm.sol\":2333:2358  stakingBalance[recipient] */\n      0xffffffffffffffffffffffffffffffffffffffff\n      and\n      0xffffffffffffffffffffffffffffffffffffffff\n      and\n      dup2\n      mstore\n      0x20\n      add\n      swap1\n      dup2\n      mstore\n      0x20\n      add\n      0x00\n      keccak256\n      sload\n        /* \"contracts/TokenFarm.sol\":2318:2358  uint balance = stakingBalance[recipient] */\n      swap1\n      pop\n        /* \"contracts/TokenFarm.sol\":2382:2383  0 */\n      0x00\n        /* \"contracts/TokenFarm.sol\":2372:2379  balance */\n      dup2\n        /* \"contracts/TokenFarm.sol\":2372:2383  balance > 0 */\n      gt\n        /* \"contracts/TokenFarm.sol\":2369:2457  if(balance > 0 ){\r... */\n      iszero\n      tag_75\n      jumpi\n        /* \"contracts/TokenFarm.sol\":2402:2415  stellartToken */\n      0x03\n      0x00\n      swap1\n      sload\n      swap1\n      0x0100\n      exp\n      swap1\n      div\n      0xffffffffffffffffffffffffffffffffffffffff\n      and\n        /* \"contracts/TokenFarm.sol\":2402:2424  stellartToken.transfer */\n      0xffffffffffffffffffffffffffffffffffffffff\n      and\n      0xa9059cbb\n        /* \"contracts/TokenFarm.sol\":2425:2434  recipient */\n      dup4\n        /* \"contracts/TokenFarm.sol\":2435:2442  balance */\n      dup4\n        /* \"contracts/TokenFarm.sol\":2402:2443  stellartToken.transfer(recipient,balance) */\n      mload(0x40)\n      dup4\n      0xffffffff\n      and\n      0xe0\n      shl\n      dup2\n      mstore\n      0x04\n      add\n      tag_76\n      swap3\n      swap2\n      swap1\n      tag_77\n      jump\t// in\n    tag_76:\n      0x20\n      mload(0x40)\n      dup1\n      dup4\n      sub\n      dup2\n      0x00\n      dup8\n      dup1\n      extcodesize\n      iszero\n      dup1\n      iszero\n      tag_78\n      jumpi\n      0x00\n      dup1\n      revert\n    tag_78:\n      pop\n      gas\n      call\n      iszero\n      dup1\n      iszero\n      tag_80\n      jumpi\n      returndatasize\n      0x00\n      dup1\n      returndatacopy\n      revert(0x00, returndatasize)\n    tag_80:\n      pop\n      pop\n      pop\n      pop\n      mload(0x40)\n      returndatasize\n      not(0x1f)\n      0x1f\n      dup3\n      add\n      and\n      dup3\n      add\n      dup1\n      0x40\n      mstore\n      pop\n      dup2\n      add\n      swap1\n      tag_81\n      swap2\n      swap1\n      tag_82\n      jump\t// in\n    tag_81:\n      pop\n        /* \"contracts/TokenFarm.sol\":2369:2457  if(balance > 0 ){\r... */\n    tag_75:\n        /* \"contracts/TokenFarm.sol\":2264:2466  {\r... */\n      pop\n      pop\n        /* \"contracts/TokenFarm.sol\":2260:2263  i++ */\n      dup1\n      dup1\n      tag_83\n      swap1\n      tag_84\n      jump\t// in\n    tag_83:\n      swap2\n      pop\n      pop\n        /* \"contracts/TokenFarm.sol\":2227:2466  for(uint i=0; i< stakers.length; i++){\r... */\n      jump(tag_68)\n    tag_69:\n      pop\n        /* \"contracts/TokenFarm.sol\":2005:2477  function issueTokens() public {\r... */\n      jump\t// out\n        /* \"contracts/TokenFarm.sol\":494:535  mapping(address => bool) public isStaking */\n    tag_29:\n      mstore(0x20, 0x07)\n      dup1\n      0x00\n      mstore\n      keccak256(0x00, 0x40)\n      0x00\n      swap2\n      pop\n      sload\n      swap1\n      0x0100\n      exp\n      swap1\n      div\n      0xff\n      and\n      dup2\n      jump\t// out\n        /* \"contracts/TokenFarm.sol\":772:1416  function stakeTokens(uint _amount) public {\r... */\n    tag_35:\n        /* \"contracts/TokenFarm.sol\":894:895  0 */\n      0x00\n        /* \"contracts/TokenFarm.sol\":884:891  _amount */\n      dup2\n        /* \"contracts/TokenFarm.sol\":884:895  _amount > 0 */\n      gt\n        /* \"contracts/TokenFarm.sol\":876:934  require(_amount > 0, \"La cantidad no puede ser menor a 0\") */\n      tag_86\n      jumpi\n      mload(0x40)\n      0x08c379a000000000000000000000000000000000000000000000000000000000\n      dup2\n      mstore\n      0x04\n      add\n      tag_87\n      swap1\n      tag_88\n      jump\t// in\n    tag_87:\n      mload(0x40)\n      dup1\n      swap2\n      sub\n      swap1\n      revert\n    tag_86:\n        /* \"contracts/TokenFarm.sol\":1008:1016  jamToken */\n      0x02\n      0x00\n      swap1\n      sload\n      swap1\n      0x0100\n      exp\n      swap1\n      div\n      0xffffffffffffffffffffffffffffffffffffffff\n      and\n        /* \"contracts/TokenFarm.sol\":1008:1029  jamToken.transferFrom */\n      0xffffffffffffffffffffffffffffffffffffffff\n      and\n      0x23b872dd\n        /* \"contracts/TokenFarm.sol\":1030:1040  msg.sender */\n      caller\n        /* \"contracts/TokenFarm.sol\":1050:1054  this */\n      address\n        /* \"contracts/TokenFarm.sol\":1057:1064  _amount */\n      dup5\n        /* \"contracts/TokenFarm.sol\":1008:1065  jamToken.transferFrom(msg.sender, address(this), _amount) */\n      mload(0x40)\n      dup5\n      0xffffffff\n      and\n      0xe0\n      shl\n      dup2\n      mstore\n      0x04\n      add\n      tag_89\n      swap4\n      swap3\n      swap2\n      swap1\n      tag_90\n      jump\t// in\n    tag_89:\n      0x20\n      mload(0x40)\n      dup1\n      dup4\n      sub\n      dup2\n      0x00\n      dup8\n      dup1\n      extcodesize\n      iszero\n      dup1\n      iszero\n      tag_91\n      jumpi\n      0x00\n      dup1\n      revert\n    tag_91:\n      pop\n      gas\n      call\n      iszero\n      dup1\n      iszero\n      tag_93\n      jumpi\n      returndatasize\n      0x00\n      dup1\n      returndatacopy\n      revert(0x00, returndatasize)\n    tag_93:\n      pop\n      pop\n      pop\n      pop\n      mload(0x40)\n      returndatasize\n      not(0x1f)\n      0x1f\n      dup3\n      add\n      and\n      dup3\n      add\n      dup1\n      0x40\n      mstore\n      pop\n      dup2\n      add\n      swap1\n      tag_94\n      swap2\n      swap1\n      tag_82\n      jump\t// in\n    tag_94:\n      pop\n        /* \"contracts/TokenFarm.sol\":1151:1158  _amount */\n      dup1\n        /* \"contracts/TokenFarm.sol\":1121:1135  stakingBalance */\n      0x05\n        /* \"contracts/TokenFarm.sol\":1121:1147  stakingBalance[msg.sender] */\n      0x00\n        /* \"contracts/TokenFarm.sol\":1136:1146  msg.sender */\n      caller\n        /* \"contracts/TokenFarm.sol\":1121:1147  stakingBalance[msg.sender] */\n      0xffffffffffffffffffffffffffffffffffffffff\n      and\n      0xffffffffffffffffffffffffffffffffffffffff\n      and\n      dup2\n      mstore\n      0x20\n      add\n      swap1\n      dup2\n      mstore\n      0x20\n      add\n      0x00\n      keccak256\n      0x00\n        /* \"contracts/TokenFarm.sol\":1121:1158  stakingBalance[msg.sender] += _amount */\n      dup3\n      dup3\n      sload\n      tag_95\n      swap2\n      swap1\n      tag_96\n      jump\t// in\n    tag_95:\n      swap3\n      pop\n      pop\n      dup2\n      swap1\n      sstore\n      pop\n        /* \"contracts/TokenFarm.sol\":1205:1214  hasStaked */\n      0x06\n        /* \"contracts/TokenFarm.sol\":1205:1226  hasStaked[msg.sender] */\n      0x00\n        /* \"contracts/TokenFarm.sol\":1215:1225  msg.sender */\n      caller\n        /* \"contracts/TokenFarm.sol\":1205:1226  hasStaked[msg.sender] */\n      0xffffffffffffffffffffffffffffffffffffffff\n      and\n      0xffffffffffffffffffffffffffffffffffffffff\n      and\n      dup2\n      mstore\n      0x20\n      add\n      swap1\n      dup2\n      mstore\n      0x20\n      add\n      0x00\n      keccak256\n      0x00\n      swap1\n      sload\n      swap1\n      0x0100\n      exp\n      swap1\n      div\n      0xff\n      and\n        /* \"contracts/TokenFarm.sol\":1201:1282  if(!hasStaked[msg.sender]){\r... */\n      tag_97\n      jumpi\n        /* \"contracts/TokenFarm.sol\":1244:1251  stakers */\n      0x04\n        /* \"contracts/TokenFarm.sol\":1257:1267  msg.sender */\n      caller\n        /* \"contracts/TokenFarm.sol\":1244:1268  stakers.push(msg.sender) */\n      swap1\n      dup1\n      0x01\n      dup2\n      sload\n      add\n      dup1\n      dup3\n      sstore\n      dup1\n      swap2\n      pop\n      pop\n      0x01\n      swap1\n      sub\n      swap1\n      0x00\n      mstore\n      keccak256(0x00, 0x20)\n      add\n      0x00\n      swap1\n      swap2\n      swap1\n      swap2\n      swap1\n      swap2\n      0x0100\n      exp\n      dup2\n      sload\n      dup2\n      0xffffffffffffffffffffffffffffffffffffffff\n      mul\n      not\n      and\n      swap1\n      dup4\n      0xffffffffffffffffffffffffffffffffffffffff\n      and\n      mul\n      or\n      swap1\n      sstore\n      pop\n        /* \"contracts/TokenFarm.sol\":1201:1282  if(!hasStaked[msg.sender]){\r... */\n    tag_97:\n        /* \"contracts/TokenFarm.sol\":1362:1366  true */\n      0x01\n        /* \"contracts/TokenFarm.sol\":1338:1347  isStaking */\n      0x07\n        /* \"contracts/TokenFarm.sol\":1338:1359  isStaking[msg.sender] */\n      0x00\n        /* \"contracts/TokenFarm.sol\":1348:1358  msg.sender */\n      caller\n        /* \"contracts/TokenFarm.sol\":1338:1359  isStaking[msg.sender] */\n      0xffffffffffffffffffffffffffffffffffffffff\n      and\n      0xffffffffffffffffffffffffffffffffffffffff\n      and\n      dup2\n      mstore\n      0x20\n      add\n      swap1\n      dup2\n      mstore\n      0x20\n      add\n      0x00\n      keccak256\n      0x00\n        /* \"contracts/TokenFarm.sol\":1338:1366  isStaking[msg.sender] = true */\n      0x0100\n      exp\n      dup2\n      sload\n      dup2\n      0xff\n      mul\n      not\n      and\n      swap1\n      dup4\n      iszero\n      iszero\n      mul\n      or\n      swap1\n      sstore\n      pop\n        /* \"contracts/TokenFarm.sol\":1401:1405  true */\n      0x01\n        /* \"contracts/TokenFarm.sol\":1377:1386  hasStaked */\n      0x06\n        /* \"contracts/TokenFarm.sol\":1377:1398  hasStaked[msg.sender] */\n      0x00\n        /* \"contracts/TokenFarm.sol\":1387:1397  msg.sender */\n      caller\n        /* \"contracts/TokenFarm.sol\":1377:1398  hasStaked[msg.sender] */\n      0xffffffffffffffffffffffffffffffffffffffff\n      and\n      0xffffffffffffffffffffffffffffffffffffffff\n      and\n      dup2\n      mstore\n      0x20\n      add\n      swap1\n      dup2\n      mstore\n      0x20\n      add\n      0x00\n      keccak256\n      0x00\n        /* \"contracts/TokenFarm.sol\":1377:1405  hasStaked[msg.sender] = true */\n      0x0100\n      exp\n      dup2\n      sload\n      dup2\n      0xff\n      mul\n      not\n      and\n      swap1\n      dup4\n      iszero\n      iszero\n      mul\n      or\n      swap1\n      sstore\n      pop\n        /* \"contracts/TokenFarm.sol\":772:1416  function stakeTokens(uint _amount) public {\r... */\n      pop\n      jump\t// out\n        /* \"contracts/TokenFarm.sol\":231:251  address public owner */\n    tag_37:\n      0x01\n      0x00\n      swap1\n      sload\n      swap1\n      0x0100\n      exp\n      swap1\n      div\n      0xffffffffffffffffffffffffffffffffffffffff\n      and\n      dup2\n      jump\t// out\n        /* \"contracts/TokenFarm.sol\":289:323  StellartToken public stellartToken */\n    tag_41:\n      0x03\n      0x00\n      swap1\n      sload\n      swap1\n      0x0100\n      exp\n      swap1\n      div\n      0xffffffffffffffffffffffffffffffffffffffff\n      and\n      dup2\n      jump\t// out\n        /* \"contracts/TokenFarm.sol\":1463:1951  function unstakeTokens() public {\r... */\n    tag_45:\n        /* \"contracts/TokenFarm.sol\":1541:1553  uint balance */\n      0x00\n        /* \"contracts/TokenFarm.sol\":1556:1570  stakingBalance */\n      0x05\n        /* \"contracts/TokenFarm.sol\":1556:1582  stakingBalance[msg.sender] */\n      0x00\n        /* \"contracts/TokenFarm.sol\":1571:1581  msg.sender */\n      caller\n        /* \"contracts/TokenFarm.sol\":1556:1582  stakingBalance[msg.sender] */\n      0xffffffffffffffffffffffffffffffffffffffff\n      and\n      0xffffffffffffffffffffffffffffffffffffffff\n      and\n      dup2\n      mstore\n      0x20\n      add\n      swap1\n      dup2\n      mstore\n      0x20\n      add\n      0x00\n      keccak256\n      sload\n        /* \"contracts/TokenFarm.sol\":1541:1582  uint balance = stakingBalance[msg.sender] */\n      swap1\n      pop\n        /* \"contracts/TokenFarm.sol\":1652:1653  0 */\n      0x00\n        /* \"contracts/TokenFarm.sol\":1642:1649  balance */\n      dup2\n        /* \"contracts/TokenFarm.sol\":1642:1653  balance > 0 */\n      gt\n        /* \"contracts/TokenFarm.sol\":1634:1688  require(balance > 0, \"El balance del staking es de 0\") */\n      tag_100\n      jumpi\n      mload(0x40)\n      0x08c379a000000000000000000000000000000000000000000000000000000000\n      dup2\n      mstore\n      0x04\n      add\n      tag_101\n      swap1\n      tag_102\n      jump\t// in\n    tag_101:\n      mload(0x40)\n      dup1\n      swap2\n      sub\n      swap1\n      revert\n    tag_100:\n        /* \"contracts/TokenFarm.sol\":1741:1749  jamToken */\n      0x02\n      0x00\n      swap1\n      sload\n      swap1\n      0x0100\n      exp\n      swap1\n      div\n      0xffffffffffffffffffffffffffffffffffffffff\n      and\n        /* \"contracts/TokenFarm.sol\":1741:1758  jamToken.transfer */\n      0xffffffffffffffffffffffffffffffffffffffff\n      and\n      0xa9059cbb\n        /* \"contracts/TokenFarm.sol\":1759:1769  msg.sender */\n      caller\n        /* \"contracts/TokenFarm.sol\":1770:1777  balance */\n      dup4\n        /* \"contracts/TokenFarm.sol\":1741:1778  jamToken.transfer(msg.sender,balance) */\n      mload(0x40)\n      dup4\n      0xffffffff\n      and\n      0xe0\n      shl\n      dup2\n      mstore\n      0x04\n      add\n      tag_103\n      swap3\n      swap2\n      swap1\n      tag_77\n      jump\t// in\n    tag_103:\n      0x20\n      mload(0x40)\n      dup1\n      dup4\n      sub\n      dup2\n      0x00\n      dup8\n      dup1\n      extcodesize\n      iszero\n      dup1\n      iszero\n      tag_104\n      jumpi\n      0x00\n      dup1\n      revert\n    tag_104:\n      pop\n      gas\n      call\n      iszero\n      dup1\n      iszero\n      tag_106\n      jumpi\n      returndatasize\n      0x00\n      dup1\n      returndatacopy\n      revert(0x00, returndatasize)\n    tag_106:\n      pop\n      pop\n      pop\n      pop\n      mload(0x40)\n      returndatasize\n      not(0x1f)\n      0x1f\n      dup3\n      add\n      and\n      dup3\n      add\n      dup1\n      0x40\n      mstore\n      pop\n      dup2\n      add\n      swap1\n      tag_107\n      swap2\n      swap1\n      tag_82\n      jump\t// in\n    tag_107:\n      pop\n        /* \"contracts/TokenFarm.sol\":1864:1865  0 */\n      0x00\n        /* \"contracts/TokenFarm.sol\":1835:1849  stakingBalance */\n      0x05\n        /* \"contracts/TokenFarm.sol\":1835:1861  stakingBalance[msg.sender] */\n      0x00\n        /* \"contracts/TokenFarm.sol\":1850:1860  msg.sender */\n      caller\n        /* \"contracts/TokenFarm.sol\":1835:1861  stakingBalance[msg.sender] */\n      0xffffffffffffffffffffffffffffffffffffffff\n      and\n      0xffffffffffffffffffffffffffffffffffffffff\n      and\n      dup2\n      mstore\n      0x20\n      add\n      swap1\n      dup2\n      mstore\n      0x20\n      add\n      0x00\n      keccak256\n        /* \"contracts/TokenFarm.sol\":1835:1865  stakingBalance[msg.sender] = 0 */\n      dup2\n      swap1\n      sstore\n      pop\n        /* \"contracts/TokenFarm.sol\":1936:1941  false */\n      0x00\n        /* \"contracts/TokenFarm.sol\":1912:1921  isStaking */\n      0x07\n        /* \"contracts/TokenFarm.sol\":1912:1933  isStaking[msg.sender] */\n      0x00\n        /* \"contracts/TokenFarm.sol\":1922:1932  msg.sender */\n      caller\n        /* \"contracts/TokenFarm.sol\":1912:1933  isStaking[msg.sender] */\n      0xffffffffffffffffffffffffffffffffffffffff\n      and\n      0xffffffffffffffffffffffffffffffffffffffff\n      and\n      dup2\n      mstore\n      0x20\n      add\n      swap1\n      dup2\n      mstore\n      0x20\n      add\n      0x00\n      keccak256\n      0x00\n        /* \"contracts/TokenFarm.sol\":1912:1941  isStaking[msg.sender] = false */\n      0x0100\n      exp\n      dup2\n      sload\n      dup2\n      0xff\n      mul\n      not\n      and\n      swap1\n      dup4\n      iszero\n      iszero\n      mul\n      or\n      swap1\n      sstore\n      pop\n        /* \"contracts/TokenFarm.sol\":1495:1951  {\r... */\n      pop\n        /* \"contracts/TokenFarm.sol\":1463:1951  function unstakeTokens() public {\r... */\n      jump\t// out\n        /* \"contracts/TokenFarm.sol\":446:487  mapping(address => bool) public hasStaked */\n    tag_48:\n      mstore(0x20, 0x06)\n      dup1\n      0x00\n      mstore\n      keccak256(0x00, 0x40)\n      0x00\n      swap2\n      pop\n      sload\n      swap1\n      0x0100\n      exp\n      swap1\n      div\n      0xff\n      and\n      dup2\n      jump\t// out\n        /* \"contracts/TokenFarm.sol\":258:282  JamToken public jamToken */\n    tag_51:\n      0x02\n      0x00\n      swap1\n      sload\n      swap1\n      0x0100\n      exp\n      swap1\n      div\n      0xffffffffffffffffffffffffffffffffffffffff\n      and\n      dup2\n      jump\t// out\n        /* \"contracts/TokenFarm.sol\":361:386  address [] public stakers */\n    tag_56:\n      0x04\n      dup2\n      dup2\n      sload\n      dup2\n      lt\n      tag_108\n      jumpi\n      0x00\n      dup1\n      revert\n    tag_108:\n      swap1\n      0x00\n      mstore\n      keccak256(0x00, 0x20)\n      add\n      0x00\n      swap2\n      pop\n      sload\n      swap1\n      0x0100\n      exp\n      swap1\n      div\n      0xffffffffffffffffffffffffffffffffffffffff\n      and\n      dup2\n      jump\t// out\n        /* \"#utility.yul\":7:146   */\n    tag_111:\n        /* \"#utility.yul\":53:58   */\n      0x00\n        /* \"#utility.yul\":91:97   */\n      dup2\n        /* \"#utility.yul\":78:98   */\n      calldataload\n        /* \"#utility.yul\":69:98   */\n      swap1\n      pop\n        /* \"#utility.yul\":107:140   */\n      tag_113\n        /* \"#utility.yul\":134:139   */\n      dup2\n        /* \"#utility.yul\":107:140   */\n      tag_114\n      jump\t// in\n    tag_113:\n        /* \"#utility.yul\":59:146   */\n      swap3\n      swap2\n      pop\n      pop\n      jump\t// out\n        /* \"#utility.yul\":152:289   */\n    tag_115:\n        /* \"#utility.yul\":206:211   */\n      0x00\n        /* \"#utility.yul\":237:243   */\n      dup2\n        /* \"#utility.yul\":231:244   */\n      mload\n        /* \"#utility.yul\":222:244   */\n      swap1\n      pop\n        /* \"#utility.yul\":253:283   */\n      tag_117\n        /* \"#utility.yul\":277:282   */\n      dup2\n        /* \"#utility.yul\":253:283   */\n      tag_118\n      jump\t// in\n    tag_117:\n        /* \"#utility.yul\":212:289   */\n      swap3\n      swap2\n      pop\n      pop\n      jump\t// out\n        /* \"#utility.yul\":295:434   */\n    tag_119:\n        /* \"#utility.yul\":341:346   */\n      0x00\n        /* \"#utility.yul\":379:385   */\n      dup2\n        /* \"#utility.yul\":366:386   */\n      calldataload\n        /* \"#utility.yul\":357:386   */\n      swap1\n      pop\n        /* \"#utility.yul\":395:428   */\n      tag_121\n        /* \"#utility.yul\":422:427   */\n      dup2\n        /* \"#utility.yul\":395:428   */\n      tag_122\n      jump\t// in\n    tag_121:\n        /* \"#utility.yul\":347:434   */\n      swap3\n      swap2\n      pop\n      pop\n      jump\t// out\n        /* \"#utility.yul\":440:769   */\n    tag_21:\n        /* \"#utility.yul\":499:505   */\n      0x00\n        /* \"#utility.yul\":548:550   */\n      0x20\n        /* \"#utility.yul\":536:545   */\n      dup3\n        /* \"#utility.yul\":527:534   */\n      dup5\n        /* \"#utility.yul\":523:546   */\n      sub\n        /* \"#utility.yul\":519:551   */\n      slt\n        /* \"#utility.yul\":516:518   */\n      iszero\n      tag_124\n      jumpi\n        /* \"#utility.yul\":554:633   */\n      tag_125\n      tag_126\n      jump\t// in\n    tag_125:\n        /* \"#utility.yul\":516:518   */\n    tag_124:\n        /* \"#utility.yul\":674:675   */\n      0x00\n        /* \"#utility.yul\":699:752   */\n      tag_127\n        /* \"#utility.yul\":744:751   */\n      dup5\n        /* \"#utility.yul\":735:741   */\n      dup3\n        /* \"#utility.yul\":724:733   */\n      dup6\n        /* \"#utility.yul\":720:742   */\n      add\n        /* \"#utility.yul\":699:752   */\n      tag_111\n      jump\t// in\n    tag_127:\n        /* \"#utility.yul\":689:752   */\n      swap2\n      pop\n        /* \"#utility.yul\":645:762   */\n      pop\n        /* \"#utility.yul\":506:769   */\n      swap3\n      swap2\n      pop\n      pop\n      jump\t// out\n        /* \"#utility.yul\":775:1120   */\n    tag_82:\n        /* \"#utility.yul\":842:848   */\n      0x00\n        /* \"#utility.yul\":891:893   */\n      0x20\n        /* \"#utility.yul\":879:888   */\n      dup3\n        /* \"#utility.yul\":870:877   */\n      dup5\n        /* \"#utility.yul\":866:889   */\n      sub\n        /* \"#utility.yul\":862:894   */\n      slt\n        /* \"#utility.yul\":859:861   */\n      iszero\n      tag_129\n      jumpi\n        /* \"#utility.yul\":897:976   */\n      tag_130\n      tag_126\n      jump\t// in\n    tag_130:\n        /* \"#utility.yul\":859:861   */\n    tag_129:\n        /* \"#utility.yul\":1017:1018   */\n      0x00\n        /* \"#utility.yul\":1042:1103   */\n      tag_131\n        /* \"#utility.yul\":1095:1102   */\n      dup5\n        /* \"#utility.yul\":1086:1092   */\n      dup3\n        /* \"#utility.yul\":1075:1084   */\n      dup6\n        /* \"#utility.yul\":1071:1093   */\n      add\n        /* \"#utility.yul\":1042:1103   */\n      tag_115\n      jump\t// in\n    tag_131:\n        /* \"#utility.yul\":1032:1103   */\n      swap2\n      pop\n        /* \"#utility.yul\":988:1113   */\n      pop\n        /* \"#utility.yul\":849:1120   */\n      swap3\n      swap2\n      pop\n      pop\n      jump\t// out\n        /* \"#utility.yul\":1126:1455   */\n    tag_34:\n        /* \"#utility.yul\":1185:1191   */\n      0x00\n        /* \"#utility.yul\":1234:1236   */\n      0x20\n        /* \"#utility.yul\":1222:1231   */\n      dup3\n        /* \"#utility.yul\":1213:1220   */\n      dup5\n        /* \"#utility.yul\":1209:1232   */\n      sub\n        /* \"#utility.yul\":1205:1237   */\n      slt\n        /* \"#utility.yul\":1202:1204   */\n      iszero\n      tag_133\n      jumpi\n        /* \"#utility.yul\":1240:1319   */\n      tag_134\n      tag_126\n      jump\t// in\n    tag_134:\n        /* \"#utility.yul\":1202:1204   */\n    tag_133:\n        /* \"#utility.yul\":1360:1361   */\n      0x00\n        /* \"#utility.yul\":1385:1438   */\n      tag_135\n        /* \"#utility.yul\":1430:1437   */\n      dup5\n        /* \"#utility.yul\":1421:1427   */\n      dup3\n        /* \"#utility.yul\":1410:1419   */\n      dup6\n        /* \"#utility.yul\":1406:1428   */\n      add\n        /* \"#utility.yul\":1385:1438   */\n      tag_119\n      jump\t// in\n    tag_135:\n        /* \"#utility.yul\":1375:1438   */\n      swap2\n      pop\n        /* \"#utility.yul\":1331:1448   */\n      pop\n        /* \"#utility.yul\":1192:1455   */\n      swap3\n      swap2\n      pop\n      pop\n      jump\t// out\n        /* \"#utility.yul\":1461:1579   */\n    tag_136:\n        /* \"#utility.yul\":1548:1572   */\n      tag_138\n        /* \"#utility.yul\":1566:1571   */\n      dup2\n        /* \"#utility.yul\":1548:1572   */\n      tag_139\n      jump\t// in\n    tag_138:\n        /* \"#utility.yul\":1543:1546   */\n      dup3\n        /* \"#utility.yul\":1536:1573   */\n      mstore\n        /* \"#utility.yul\":1526:1579   */\n      pop\n      pop\n      jump\t// out\n        /* \"#utility.yul\":1585:1694   */\n    tag_140:\n        /* \"#utility.yul\":1666:1687   */\n      tag_142\n        /* \"#utility.yul\":1681:1686   */\n      dup2\n        /* \"#utility.yul\":1666:1687   */\n      tag_143\n      jump\t// in\n    tag_142:\n        /* \"#utility.yul\":1661:1664   */\n      dup3\n        /* \"#utility.yul\":1654:1688   */\n      mstore\n        /* \"#utility.yul\":1644:1694   */\n      pop\n      pop\n      jump\t// out\n        /* \"#utility.yul\":1700:1863   */\n    tag_144:\n        /* \"#utility.yul\":1803:1856   */\n      tag_146\n        /* \"#utility.yul\":1850:1855   */\n      dup2\n        /* \"#utility.yul\":1803:1856   */\n      tag_147\n      jump\t// in\n    tag_146:\n        /* \"#utility.yul\":1798:1801   */\n      dup3\n        /* \"#utility.yul\":1791:1857   */\n      mstore\n        /* \"#utility.yul\":1781:1863   */\n      pop\n      pop\n      jump\t// out\n        /* \"#utility.yul\":1869:2042   */\n    tag_148:\n        /* \"#utility.yul\":1977:2035   */\n      tag_150\n        /* \"#utility.yul\":2029:2034   */\n      dup2\n        /* \"#utility.yul\":1977:2035   */\n      tag_151\n      jump\t// in\n    tag_150:\n        /* \"#utility.yul\":1972:1975   */\n      dup3\n        /* \"#utility.yul\":1965:2036   */\n      mstore\n        /* \"#utility.yul\":1955:2042   */\n      pop\n      pop\n      jump\t// out\n        /* \"#utility.yul\":2048:2412   */\n    tag_152:\n        /* \"#utility.yul\":2136:2139   */\n      0x00\n        /* \"#utility.yul\":2164:2203   */\n      tag_154\n        /* \"#utility.yul\":2197:2202   */\n      dup3\n        /* \"#utility.yul\":2164:2203   */\n      tag_155\n      jump\t// in\n    tag_154:\n        /* \"#utility.yul\":2219:2290   */\n      tag_156\n        /* \"#utility.yul\":2283:2289   */\n      dup2\n        /* \"#utility.yul\":2278:2281   */\n      dup6\n        /* \"#utility.yul\":2219:2290   */\n      tag_157\n      jump\t// in\n    tag_156:\n        /* \"#utility.yul\":2212:2290   */\n      swap4\n      pop\n        /* \"#utility.yul\":2299:2351   */\n      tag_158\n        /* \"#utility.yul\":2344:2350   */\n      dup2\n        /* \"#utility.yul\":2339:2342   */\n      dup6\n        /* \"#utility.yul\":2332:2336   */\n      0x20\n        /* \"#utility.yul\":2325:2330   */\n      dup7\n        /* \"#utility.yul\":2321:2337   */\n      add\n        /* \"#utility.yul\":2299:2351   */\n      tag_159\n      jump\t// in\n    tag_158:\n        /* \"#utility.yul\":2376:2405   */\n      tag_160\n        /* \"#utility.yul\":2398:2404   */\n      dup2\n        /* \"#utility.yul\":2376:2405   */\n      tag_161\n      jump\t// in\n    tag_160:\n        /* \"#utility.yul\":2371:2374   */\n      dup5\n        /* \"#utility.yul\":2367:2406   */\n      add\n        /* \"#utility.yul\":2360:2406   */\n      swap2\n      pop\n        /* \"#utility.yul\":2140:2412   */\n      pop\n      swap3\n      swap2\n      pop\n      pop\n      jump\t// out\n        /* \"#utility.yul\":2418:2784   */\n    tag_162:\n        /* \"#utility.yul\":2560:2563   */\n      0x00\n        /* \"#utility.yul\":2581:2648   */\n      tag_164\n        /* \"#utility.yul\":2645:2647   */\n      0x1e\n        /* \"#utility.yul\":2640:2643   */\n      dup4\n        /* \"#utility.yul\":2581:2648   */\n      tag_157\n      jump\t// in\n    tag_164:\n        /* \"#utility.yul\":2574:2648   */\n      swap2\n      pop\n        /* \"#utility.yul\":2657:2750   */\n      tag_165\n        /* \"#utility.yul\":2746:2749   */\n      dup3\n        /* \"#utility.yul\":2657:2750   */\n      tag_166\n      jump\t// in\n    tag_165:\n        /* \"#utility.yul\":2775:2777   */\n      0x20\n        /* \"#utility.yul\":2770:2773   */\n      dup3\n        /* \"#utility.yul\":2766:2778   */\n      add\n        /* \"#utility.yul\":2759:2778   */\n      swap1\n      pop\n        /* \"#utility.yul\":2564:2784   */\n      swap2\n      swap1\n      pop\n      jump\t// out\n        /* \"#utility.yul\":2790:3156   */\n    tag_167:\n        /* \"#utility.yul\":2932:2935   */\n      0x00\n        /* \"#utility.yul\":2953:3020   */\n      tag_169\n        /* \"#utility.yul\":3017:3019   */\n      0x10\n        /* \"#utility.yul\":3012:3015   */\n      dup4\n        /* \"#utility.yul\":2953:3020   */\n      tag_157\n      jump\t// in\n    tag_169:\n        /* \"#utility.yul\":2946:3020   */\n      swap2\n      pop\n        /* \"#utility.yul\":3029:3122   */\n      tag_170\n        /* \"#utility.yul\":3118:3121   */\n      dup3\n        /* \"#utility.yul\":3029:3122   */\n      tag_171\n      jump\t// in\n    tag_170:\n        /* \"#utility.yul\":3147:3149   */\n      0x20\n        /* \"#utility.yul\":3142:3145   */\n      dup3\n        /* \"#utility.yul\":3138:3150   */\n      add\n        /* \"#utility.yul\":3131:3150   */\n      swap1\n      pop\n        /* \"#utility.yul\":2936:3156   */\n      swap2\n      swap1\n      pop\n      jump\t// out\n        /* \"#utility.yul\":3162:3528   */\n    tag_172:\n        /* \"#utility.yul\":3304:3307   */\n      0x00\n        /* \"#utility.yul\":3325:3392   */\n      tag_174\n        /* \"#utility.yul\":3389:3391   */\n      0x22\n        /* \"#utility.yul\":3384:3387   */\n      dup4\n        /* \"#utility.yul\":3325:3392   */\n      tag_157\n      jump\t// in\n    tag_174:\n        /* \"#utility.yul\":3318:3392   */\n      swap2\n      pop\n        /* \"#utility.yul\":3401:3494   */\n      tag_175\n        /* \"#utility.yul\":3490:3493   */\n      dup3\n        /* \"#utility.yul\":3401:3494   */\n      tag_176\n      jump\t// in\n    tag_175:\n        /* \"#utility.yul\":3519:3521   */\n      0x40\n        /* \"#utility.yul\":3514:3517   */\n      dup3\n        /* \"#utility.yul\":3510:3522   */\n      add\n        /* \"#utility.yul\":3503:3522   */\n      swap1\n      pop\n        /* \"#utility.yul\":3308:3528   */\n      swap2\n      swap1\n      pop\n      jump\t// out\n        /* \"#utility.yul\":3534:3652   */\n    tag_177:\n        /* \"#utility.yul\":3621:3645   */\n      tag_179\n        /* \"#utility.yul\":3639:3644   */\n      dup2\n        /* \"#utility.yul\":3621:3645   */\n      tag_180\n      jump\t// in\n    tag_179:\n        /* \"#utility.yul\":3616:3619   */\n      dup3\n        /* \"#utility.yul\":3609:3646   */\n      mstore\n        /* \"#utility.yul\":3599:3652   */\n      pop\n      pop\n      jump\t// out\n        /* \"#utility.yul\":3658:3880   */\n    tag_39:\n        /* \"#utility.yul\":3751:3755   */\n      0x00\n        /* \"#utility.yul\":3789:3791   */\n      0x20\n        /* \"#utility.yul\":3778:3787   */\n      dup3\n        /* \"#utility.yul\":3774:3792   */\n      add\n        /* \"#utility.yul\":3766:3792   */\n      swap1\n      pop\n        /* \"#utility.yul\":3802:3873   */\n      tag_182\n        /* \"#utility.yul\":3870:3871   */\n      0x00\n        /* \"#utility.yul\":3859:3868   */\n      dup4\n        /* \"#utility.yul\":3855:3872   */\n      add\n        /* \"#utility.yul\":3846:3852   */\n      dup5\n        /* \"#utility.yul\":3802:3873   */\n      tag_136\n      jump\t// in\n    tag_182:\n        /* \"#utility.yul\":3756:3880   */\n      swap3\n      swap2\n      pop\n      pop\n      jump\t// out\n        /* \"#utility.yul\":3886:4328   */\n    tag_90:\n        /* \"#utility.yul\":4035:4039   */\n      0x00\n        /* \"#utility.yul\":4073:4075   */\n      0x60\n        /* \"#utility.yul\":4062:4071   */\n      dup3\n        /* \"#utility.yul\":4058:4076   */\n      add\n        /* \"#utility.yul\":4050:4076   */\n      swap1\n      pop\n        /* \"#utility.yul\":4086:4157   */\n      tag_184\n        /* \"#utility.yul\":4154:4155   */\n      0x00\n        /* \"#utility.yul\":4143:4152   */\n      dup4\n        /* \"#utility.yul\":4139:4156   */\n      add\n        /* \"#utility.yul\":4130:4136   */\n      dup7\n        /* \"#utility.yul\":4086:4157   */\n      tag_136\n      jump\t// in\n    tag_184:\n        /* \"#utility.yul\":4167:4239   */\n      tag_185\n        /* \"#utility.yul\":4235:4237   */\n      0x20\n        /* \"#utility.yul\":4224:4233   */\n      dup4\n        /* \"#utility.yul\":4220:4238   */\n      add\n        /* \"#utility.yul\":4211:4217   */\n      dup6\n        /* \"#utility.yul\":4167:4239   */\n      tag_136\n      jump\t// in\n    tag_185:\n        /* \"#utility.yul\":4249:4321   */\n      tag_186\n        /* \"#utility.yul\":4317:4319   */\n      0x40\n        /* \"#utility.yul\":4306:4315   */\n      dup4\n        /* \"#utility.yul\":4302:4320   */\n      add\n        /* \"#utility.yul\":4293:4299   */\n      dup5\n        /* \"#utility.yul\":4249:4321   */\n      tag_177\n      jump\t// in\n    tag_186:\n        /* \"#utility.yul\":4040:4328   */\n      swap5\n      swap4\n      pop\n      pop\n      pop\n      pop\n      jump\t// out\n        /* \"#utility.yul\":4334:4666   */\n    tag_77:\n        /* \"#utility.yul\":4455:4459   */\n      0x00\n        /* \"#utility.yul\":4493:4495   */\n      0x40\n        /* \"#utility.yul\":4482:4491   */\n      dup3\n        /* \"#utility.yul\":4478:4496   */\n      add\n        /* \"#utility.yul\":4470:4496   */\n      swap1\n      pop\n        /* \"#utility.yul\":4506:4577   */\n      tag_188\n        /* \"#utility.yul\":4574:4575   */\n      0x00\n        /* \"#utility.yul\":4563:4572   */\n      dup4\n        /* \"#utility.yul\":4559:4576   */\n      add\n        /* \"#utility.yul\":4550:4556   */\n      dup6\n        /* \"#utility.yul\":4506:4577   */\n      tag_136\n      jump\t// in\n    tag_188:\n        /* \"#utility.yul\":4587:4659   */\n      tag_189\n        /* \"#utility.yul\":4655:4657   */\n      0x20\n        /* \"#utility.yul\":4644:4653   */\n      dup4\n        /* \"#utility.yul\":4640:4658   */\n      add\n        /* \"#utility.yul\":4631:4637   */\n      dup5\n        /* \"#utility.yul\":4587:4659   */\n      tag_177\n      jump\t// in\n    tag_189:\n        /* \"#utility.yul\":4460:4666   */\n      swap4\n      swap3\n      pop\n      pop\n      pop\n      jump\t// out\n        /* \"#utility.yul\":4672:4882   */\n    tag_31:\n        /* \"#utility.yul\":4759:4763   */\n      0x00\n        /* \"#utility.yul\":4797:4799   */\n      0x20\n        /* \"#utility.yul\":4786:4795   */\n      dup3\n        /* \"#utility.yul\":4782:4800   */\n      add\n        /* \"#utility.yul\":4774:4800   */\n      swap1\n      pop\n        /* \"#utility.yul\":4810:4875   */\n      tag_191\n        /* \"#utility.yul\":4872:4873   */\n      0x00\n        /* \"#utility.yul\":4861:4870   */\n      dup4\n        /* \"#utility.yul\":4857:4874   */\n      add\n        /* \"#utility.yul\":4848:4854   */\n      dup5\n        /* \"#utility.yul\":4810:4875   */\n      tag_140\n      jump\t// in\n    tag_191:\n        /* \"#utility.yul\":4764:4882   */\n      swap3\n      swap2\n      pop\n      pop\n      jump\t// out\n        /* \"#utility.yul\":4888:5142   */\n    tag_53:\n        /* \"#utility.yul\":4997:5001   */\n      0x00\n        /* \"#utility.yul\":5035:5037   */\n      0x20\n        /* \"#utility.yul\":5024:5033   */\n      dup3\n        /* \"#utility.yul\":5020:5038   */\n      add\n        /* \"#utility.yul\":5012:5038   */\n      swap1\n      pop\n        /* \"#utility.yul\":5048:5135   */\n      tag_193\n        /* \"#utility.yul\":5132:5133   */\n      0x00\n        /* \"#utility.yul\":5121:5130   */\n      dup4\n        /* \"#utility.yul\":5117:5134   */\n      add\n        /* \"#utility.yul\":5108:5114   */\n      dup5\n        /* \"#utility.yul\":5048:5135   */\n      tag_144\n      jump\t// in\n    tag_193:\n        /* \"#utility.yul\":5002:5142   */\n      swap3\n      swap2\n      pop\n      pop\n      jump\t// out\n        /* \"#utility.yul\":5148:5412   */\n    tag_43:\n        /* \"#utility.yul\":5262:5266   */\n      0x00\n        /* \"#utility.yul\":5300:5302   */\n      0x20\n        /* \"#utility.yul\":5289:5298   */\n      dup3\n        /* \"#utility.yul\":5285:5303   */\n      add\n        /* \"#utility.yul\":5277:5303   */\n      swap1\n      pop\n        /* \"#utility.yul\":5313:5405   */\n      tag_195\n        /* \"#utility.yul\":5402:5403   */\n      0x00\n        /* \"#utility.yul\":5391:5400   */\n      dup4\n        /* \"#utility.yul\":5387:5404   */\n      add\n        /* \"#utility.yul\":5378:5384   */\n      dup5\n        /* \"#utility.yul\":5313:5405   */\n      tag_148\n      jump\t// in\n    tag_195:\n        /* \"#utility.yul\":5267:5412   */\n      swap3\n      swap2\n      pop\n      pop\n      jump\t// out\n        /* \"#utility.yul\":5418:5731   */\n    tag_18:\n        /* \"#utility.yul\":5531:5535   */\n      0x00\n        /* \"#utility.yul\":5569:5571   */\n      0x20\n        /* \"#utility.yul\":5558:5567   */\n      dup3\n        /* \"#utility.yul\":5554:5572   */\n      add\n        /* \"#utility.yul\":5546:5572   */\n      swap1\n      pop\n        /* \"#utility.yul\":5618:5627   */\n      dup2\n        /* \"#utility.yul\":5612:5616   */\n      dup2\n        /* \"#utility.yul\":5608:5628   */\n      sub\n        /* \"#utility.yul\":5604:5605   */\n      0x00\n        /* \"#utility.yul\":5593:5602   */\n      dup4\n        /* \"#utility.yul\":5589:5606   */\n      add\n        /* \"#utility.yul\":5582:5629   */\n      mstore\n        /* \"#utility.yul\":5646:5724   */\n      tag_197\n        /* \"#utility.yul\":5719:5723   */\n      dup2\n        /* \"#utility.yul\":5710:5716   */\n      dup5\n        /* \"#utility.yul\":5646:5724   */\n      tag_152\n      jump\t// in\n    tag_197:\n        /* \"#utility.yul\":5638:5724   */\n      swap1\n      pop\n        /* \"#utility.yul\":5536:5731   */\n      swap3\n      swap2\n      pop\n      pop\n      jump\t// out\n        /* \"#utility.yul\":5737:6156   */\n    tag_102:\n        /* \"#utility.yul\":5903:5907   */\n      0x00\n        /* \"#utility.yul\":5941:5943   */\n      0x20\n        /* \"#utility.yul\":5930:5939   */\n      dup3\n        /* \"#utility.yul\":5926:5944   */\n      add\n        /* \"#utility.yul\":5918:5944   */\n      swap1\n      pop\n        /* \"#utility.yul\":5990:5999   */\n      dup2\n        /* \"#utility.yul\":5984:5988   */\n      dup2\n        /* \"#utility.yul\":5980:6000   */\n      sub\n        /* \"#utility.yul\":5976:5977   */\n      0x00\n        /* \"#utility.yul\":5965:5974   */\n      dup4\n        /* \"#utility.yul\":5961:5978   */\n      add\n        /* \"#utility.yul\":5954:6001   */\n      mstore\n        /* \"#utility.yul\":6018:6149   */\n      tag_199\n        /* \"#utility.yul\":6144:6148   */\n      dup2\n        /* \"#utility.yul\":6018:6149   */\n      tag_162\n      jump\t// in\n    tag_199:\n        /* \"#utility.yul\":6010:6149   */\n      swap1\n      pop\n        /* \"#utility.yul\":5908:6156   */\n      swap2\n      swap1\n      pop\n      jump\t// out\n        /* \"#utility.yul\":6162:6581   */\n    tag_67:\n        /* \"#utility.yul\":6328:6332   */\n      0x00\n        /* \"#utility.yul\":6366:6368   */\n      0x20\n        /* \"#utility.yul\":6355:6364   */\n      dup3\n        /* \"#utility.yul\":6351:6369   */\n      add\n        /* \"#utility.yul\":6343:6369   */\n      swap1\n      pop\n        /* \"#utility.yul\":6415:6424   */\n      dup2\n        /* \"#utility.yul\":6409:6413   */\n      dup2\n        /* \"#utility.yul\":6405:6425   */\n      sub\n        /* \"#utility.yul\":6401:6402   */\n      0x00\n        /* \"#utility.yul\":6390:6399   */\n      dup4\n        /* \"#utility.yul\":6386:6403   */\n      add\n        /* \"#utility.yul\":6379:6426   */\n      mstore\n        /* \"#utility.yul\":6443:6574   */\n      tag_201\n        /* \"#utility.yul\":6569:6573   */\n      dup2\n        /* \"#utility.yul\":6443:6574   */\n      tag_167\n      jump\t// in\n    tag_201:\n        /* \"#utility.yul\":6435:6574   */\n      swap1\n      pop\n        /* \"#utility.yul\":6333:6581   */\n      swap2\n      swap1\n      pop\n      jump\t// out\n        /* \"#utility.yul\":6587:7006   */\n    tag_88:\n        /* \"#utility.yul\":6753:6757   */\n      0x00\n        /* \"#utility.yul\":6791:6793   */\n      0x20\n        /* \"#utility.yul\":6780:6789   */\n      dup3\n        /* \"#utility.yul\":6776:6794   */\n      add\n        /* \"#utility.yul\":6768:6794   */\n      swap1\n      pop\n        /* \"#utility.yul\":6840:6849   */\n      dup2\n        /* \"#utility.yul\":6834:6838   */\n      dup2\n        /* \"#utility.yul\":6830:6850   */\n      sub\n        /* \"#utility.yul\":6826:6827   */\n      0x00\n        /* \"#utility.yul\":6815:6824   */\n      dup4\n        /* \"#utility.yul\":6811:6828   */\n      add\n        /* \"#utility.yul\":6804:6851   */\n      mstore\n        /* \"#utility.yul\":6868:6999   */\n      tag_203\n        /* \"#utility.yul\":6994:6998   */\n      dup2\n        /* \"#utility.yul\":6868:6999   */\n      tag_172\n      jump\t// in\n    tag_203:\n        /* \"#utility.yul\":6860:6999   */\n      swap1\n      pop\n        /* \"#utility.yul\":6758:7006   */\n      swap2\n      swap1\n      pop\n      jump\t// out\n        /* \"#utility.yul\":7012:7234   */\n    tag_24:\n        /* \"#utility.yul\":7105:7109   */\n      0x00\n        /* \"#utility.yul\":7143:7145   */\n      0x20\n        /* \"#utility.yul\":7132:7141   */\n      dup3\n        /* \"#utility.yul\":7128:7146   */\n      add\n        /* \"#utility.yul\":7120:7146   */\n      swap1\n      pop\n        /* \"#utility.yul\":7156:7227   */\n      tag_205\n        /* \"#utility.yul\":7224:7225   */\n      0x00\n        /* \"#utility.yul\":7213:7222   */\n      dup4\n        /* \"#utility.yul\":7209:7226   */\n      add\n        /* \"#utility.yul\":7200:7206   */\n      dup5\n        /* \"#utility.yul\":7156:7227   */\n      tag_177\n      jump\t// in\n    tag_205:\n        /* \"#utility.yul\":7110:7234   */\n      swap3\n      swap2\n      pop\n      pop\n      jump\t// out\n        /* \"#utility.yul\":7321:7420   */\n    tag_155:\n        /* \"#utility.yul\":7373:7379   */\n      0x00\n        /* \"#utility.yul\":7407:7412   */\n      dup2\n        /* \"#utility.yul\":7401:7413   */\n      mload\n        /* \"#utility.yul\":7391:7413   */\n      swap1\n      pop\n        /* \"#utility.yul\":7380:7420   */\n      swap2\n      swap1\n      pop\n      jump\t// out\n        /* \"#utility.yul\":7426:7595   */\n    tag_157:\n        /* \"#utility.yul\":7510:7521   */\n      0x00\n        /* \"#utility.yul\":7544:7550   */\n      dup3\n        /* \"#utility.yul\":7539:7542   */\n      dup3\n        /* \"#utility.yul\":7532:7551   */\n      mstore\n        /* \"#utility.yul\":7584:7588   */\n      0x20\n        /* \"#utility.yul\":7579:7582   */\n      dup3\n        /* \"#utility.yul\":7575:7589   */\n      add\n        /* \"#utility.yul\":7560:7589   */\n      swap1\n      pop\n        /* \"#utility.yul\":7522:7595   */\n      swap3\n      swap2\n      pop\n      pop\n      jump\t// out\n        /* \"#utility.yul\":7601:7906   */\n    tag_96:\n        /* \"#utility.yul\":7641:7644   */\n      0x00\n        /* \"#utility.yul\":7660:7680   */\n      tag_211\n        /* \"#utility.yul\":7678:7679   */\n      dup3\n        /* \"#utility.yul\":7660:7680   */\n      tag_180\n      jump\t// in\n    tag_211:\n        /* \"#utility.yul\":7655:7680   */\n      swap2\n      pop\n        /* \"#utility.yul\":7694:7714   */\n      tag_212\n        /* \"#utility.yul\":7712:7713   */\n      dup4\n        /* \"#utility.yul\":7694:7714   */\n      tag_180\n      jump\t// in\n    tag_212:\n        /* \"#utility.yul\":7689:7714   */\n      swap3\n      pop\n        /* \"#utility.yul\":7848:7849   */\n      dup3\n        /* \"#utility.yul\":7780:7846   */\n      0xffffffffffffffffffffffffffffffffffffffffffffffffffffffffffffffff\n        /* \"#utility.yul\":7776:7850   */\n      sub\n        /* \"#utility.yul\":7773:7774   */\n      dup3\n        /* \"#utility.yul\":7770:7851   */\n      gt\n        /* \"#utility.yul\":7767:7769   */\n      iszero\n      tag_213\n      jumpi\n        /* \"#utility.yul\":7854:7872   */\n      tag_214\n      tag_215\n      jump\t// in\n    tag_214:\n        /* \"#utility.yul\":7767:7769   */\n    tag_213:\n        /* \"#utility.yul\":7898:7899   */\n      dup3\n        /* \"#utility.yul\":7895:7896   */\n      dup3\n        /* \"#utility.yul\":7891:7900   */\n      add\n        /* \"#utility.yul\":7884:7900   */\n      swap1\n      pop\n        /* \"#utility.yul\":7645:7906   */\n      swap3\n      swap2\n      pop\n      pop\n      jump\t// out\n        /* \"#utility.yul\":7912:8008   */\n    tag_139:\n        /* \"#utility.yul\":7949:7956   */\n      0x00\n        /* \"#utility.yul\":7978:8002   */\n      tag_217\n        /* \"#utility.yul\":7996:8001   */\n      dup3\n        /* \"#utility.yul\":7978:8002   */\n      tag_218\n      jump\t// in\n    tag_217:\n        /* \"#utility.yul\":7967:8002   */\n      swap1\n      pop\n        /* \"#utility.yul\":7957:8008   */\n      swap2\n      swap1\n      pop\n      jump\t// out\n        /* \"#utility.yul\":8014:8104   */\n    tag_143:\n        /* \"#utility.yul\":8048:8055   */\n      0x00\n        /* \"#utility.yul\":8091:8096   */\n      dup2\n        /* \"#utility.yul\":8084:8097   */\n      iszero\n        /* \"#utility.yul\":8077:8098   */\n      iszero\n        /* \"#utility.yul\":8066:8098   */\n      swap1\n      pop\n        /* \"#utility.yul\":8056:8104   */\n      swap2\n      swap1\n      pop\n      jump\t// out\n        /* \"#utility.yul\":8110:8236   */\n    tag_218:\n        /* \"#utility.yul\":8147:8154   */\n      0x00\n        /* \"#utility.yul\":8187:8229   */\n      0xffffffffffffffffffffffffffffffffffffffff\n        /* \"#utility.yul\":8180:8185   */\n      dup3\n        /* \"#utility.yul\":8176:8230   */\n      and\n        /* \"#utility.yul\":8165:8230   */\n      swap1\n      pop\n        /* \"#utility.yul\":8155:8236   */\n      swap2\n      swap1\n      pop\n      jump\t// out\n        /* \"#utility.yul\":8242:8319   */\n    tag_180:\n        /* \"#utility.yul\":8279:8286   */\n      0x00\n        /* \"#utility.yul\":8308:8313   */\n      dup2\n        /* \"#utility.yul\":8297:8313   */\n      swap1\n      pop\n        /* \"#utility.yul\":8287:8319   */\n      swap2\n      swap1\n      pop\n      jump\t// out\n        /* \"#utility.yul\":8325:8483   */\n    tag_147:\n        /* \"#utility.yul\":8391:8400   */\n      0x00\n        /* \"#utility.yul\":8424:8477   */\n      tag_223\n        /* \"#utility.yul\":8471:8476   */\n      dup3\n        /* \"#utility.yul\":8424:8477   */\n      tag_224\n      jump\t// in\n    tag_223:\n        /* \"#utility.yul\":8411:8477   */\n      swap1\n      pop\n        /* \"#utility.yul\":8401:8483   */\n      swap2\n      swap1\n      pop\n      jump\t// out\n        /* \"#utility.yul\":8489:8618   */\n    tag_224:\n        /* \"#utility.yul\":8555:8564   */\n      0x00\n        /* \"#utility.yul\":8588:8612   */\n      tag_226\n        /* \"#utility.yul\":8606:8611   */\n      dup3\n        /* \"#utility.yul\":8588:8612   */\n      tag_218\n      jump\t// in\n    tag_226:\n        /* \"#utility.yul\":8575:8612   */\n      swap1\n      pop\n        /* \"#utility.yul\":8565:8618   */\n      swap2\n      swap1\n      pop\n      jump\t// out\n        /* \"#utility.yul\":8624:8792   */\n    tag_151:\n        /* \"#utility.yul\":8695:8704   */\n      0x00\n        /* \"#utility.yul\":8728:8786   */\n      tag_228\n        /* \"#utility.yul\":8780:8785   */\n      dup3\n        /* \"#utility.yul\":8728:8786   */\n      tag_229\n      jump\t// in\n    tag_228:\n        /* \"#utility.yul\":8715:8786   */\n      swap1\n      pop\n        /* \"#utility.yul\":8705:8792   */\n      swap2\n      swap1\n      pop\n      jump\t// out\n        /* \"#utility.yul\":8798:8932   */\n    tag_229:\n        /* \"#utility.yul\":8869:8878   */\n      0x00\n        /* \"#utility.yul\":8902:8926   */\n      tag_231\n        /* \"#utility.yul\":8920:8925   */\n      dup3\n        /* \"#utility.yul\":8902:8926   */\n      tag_218\n      jump\t// in\n    tag_231:\n        /* \"#utility.yul\":8889:8926   */\n      swap1\n      pop\n        /* \"#utility.yul\":8879:8932   */\n      swap2\n      swap1\n      pop\n      jump\t// out\n        /* \"#utility.yul\":8938:9245   */\n    tag_159:\n        /* \"#utility.yul\":9006:9007   */\n      0x00\n        /* \"#utility.yul\":9016:9129   */\n    tag_233:\n        /* \"#utility.yul\":9030:9036   */\n      dup4\n        /* \"#utility.yul\":9027:9028   */\n      dup2\n        /* \"#utility.yul\":9024:9037   */\n      lt\n        /* \"#utility.yul\":9016:9129   */\n      iszero\n      tag_235\n      jumpi\n        /* \"#utility.yul\":9115:9116   */\n      dup1\n        /* \"#utility.yul\":9110:9113   */\n      dup3\n        /* \"#utility.yul\":9106:9117   */\n      add\n        /* \"#utility.yul\":9100:9118   */\n      mload\n        /* \"#utility.yul\":9096:9097   */\n      dup2\n        /* \"#utility.yul\":9091:9094   */\n      dup5\n        /* \"#utility.yul\":9087:9098   */\n      add\n        /* \"#utility.yul\":9080:9119   */\n      mstore\n        /* \"#utility.yul\":9052:9054   */\n      0x20\n        /* \"#utility.yul\":9049:9050   */\n      dup2\n        /* \"#utility.yul\":9045:9055   */\n      add\n        /* \"#utility.yul\":9040:9055   */\n      swap1\n      pop\n        /* \"#utility.yul\":9016:9129   */\n      jump(tag_233)\n    tag_235:\n        /* \"#utility.yul\":9147:9153   */\n      dup4\n        /* \"#utility.yul\":9144:9145   */\n      dup2\n        /* \"#utility.yul\":9141:9154   */\n      gt\n        /* \"#utility.yul\":9138:9140   */\n      iszero\n      tag_236\n      jumpi\n        /* \"#utility.yul\":9227:9228   */\n      0x00\n        /* \"#utility.yul\":9218:9224   */\n      dup5\n        /* \"#utility.yul\":9213:9216   */\n      dup5\n        /* \"#utility.yul\":9209:9225   */\n      add\n        /* \"#utility.yul\":9202:9229   */\n      mstore\n        /* \"#utility.yul\":9138:9140   */\n    tag_236:\n        /* \"#utility.yul\":8987:9245   */\n      pop\n      pop\n      pop\n      pop\n      jump\t// out\n        /* \"#utility.yul\":9251:9571   */\n    tag_59:\n        /* \"#utility.yul\":9295:9301   */\n      0x00\n        /* \"#utility.yul\":9332:9333   */\n      0x02\n        /* \"#utility.yul\":9326:9330   */\n      dup3\n        /* \"#utility.yul\":9322:9334   */\n      div\n        /* \"#utility.yul\":9312:9334   */\n      swap1\n      pop\n        /* \"#utility.yul\":9379:9380   */\n      0x01\n        /* \"#utility.yul\":9373:9377   */\n      dup3\n        /* \"#utility.yul\":9369:9381   */\n      and\n        /* \"#utility.yul\":9400:9418   */\n      dup1\n        /* \"#utility.yul\":9390:9392   */\n      tag_238\n      jumpi\n        /* \"#utility.yul\":9456:9460   */\n      0x7f\n        /* \"#utility.yul\":9448:9454   */\n      dup3\n        /* \"#utility.yul\":9444:9461   */\n      and\n        /* \"#utility.yul\":9434:9461   */\n      swap2\n      pop\n        /* \"#utility.yul\":9390:9392   */\n    tag_238:\n        /* \"#utility.yul\":9518:9520   */\n      0x20\n        /* \"#utility.yul\":9510:9516   */\n      dup3\n        /* \"#utility.yul\":9507:9521   */\n      lt\n        /* \"#utility.yul\":9487:9505   */\n      dup2\n        /* \"#utility.yul\":9484:9522   */\n      eq\n        /* \"#utility.yul\":9481:9483   */\n      iszero\n      tag_239\n      jumpi\n        /* \"#utility.yul\":9537:9555   */\n      tag_240\n      tag_241\n      jump\t// in\n    tag_240:\n        /* \"#utility.yul\":9481:9483   */\n    tag_239:\n        /* \"#utility.yul\":9302:9571   */\n      pop\n      swap2\n      swap1\n      pop\n      jump\t// out\n        /* \"#utility.yul\":9577:9810   */\n    tag_84:\n        /* \"#utility.yul\":9616:9619   */\n      0x00\n        /* \"#utility.yul\":9639:9663   */\n      tag_243\n        /* \"#utility.yul\":9657:9662   */\n      dup3\n        /* \"#utility.yul\":9639:9663   */\n      tag_180\n      jump\t// in\n    tag_243:\n        /* \"#utility.yul\":9630:9663   */\n      swap2\n      pop\n        /* \"#utility.yul\":9685:9751   */\n      0xffffffffffffffffffffffffffffffffffffffffffffffffffffffffffffffff\n        /* \"#utility.yul\":9678:9683   */\n      dup3\n        /* \"#utility.yul\":9675:9752   */\n      eq\n        /* \"#utility.yul\":9672:9674   */\n      iszero\n      tag_244\n      jumpi\n        /* \"#utility.yul\":9755:9773   */\n      tag_245\n      tag_215\n      jump\t// in\n    tag_245:\n        /* \"#utility.yul\":9672:9674   */\n    tag_244:\n        /* \"#utility.yul\":9802:9803   */\n      0x01\n        /* \"#utility.yul\":9795:9800   */\n      dup3\n        /* \"#utility.yul\":9791:9804   */\n      add\n        /* \"#utility.yul\":9784:9804   */\n      swap1\n      pop\n        /* \"#utility.yul\":9620:9810   */\n      swap2\n      swap1\n      pop\n      jump\t// out\n        /* \"#utility.yul\":9816:9996   */\n    tag_215:\n        /* \"#utility.yul\":9864:9941   */\n      0x4e487b7100000000000000000000000000000000000000000000000000000000\n        /* \"#utility.yul\":9861:9862   */\n      0x00\n        /* \"#utility.yul\":9854:9942   */\n      mstore\n        /* \"#utility.yul\":9961:9965   */\n      0x11\n        /* \"#utility.yul\":9958:9959   */\n      0x04\n        /* \"#utility.yul\":9951:9966   */\n      mstore\n        /* \"#utility.yul\":9985:9989   */\n      0x24\n        /* \"#utility.yul\":9982:9983   */\n      0x00\n        /* \"#utility.yul\":9975:9990   */\n      revert\n        /* \"#utility.yul\":10002:10182   */\n    tag_241:\n        /* \"#utility.yul\":10050:10127   */\n      0x4e487b7100000000000000000000000000000000000000000000000000000000\n        /* \"#utility.yul\":10047:10048   */\n      0x00\n        /* \"#utility.yul\":10040:10128   */\n      mstore\n        /* \"#utility.yul\":10147:10151   */\n      0x22\n        /* \"#utility.yul\":10144:10145   */\n      0x04\n        /* \"#utility.yul\":10137:10152   */\n      mstore\n        /* \"#utility.yul\":10171:10175   */\n      0x24\n        /* \"#utility.yul\":10168:10169   */\n      0x00\n        /* \"#utility.yul\":10161:10176   */\n      revert\n        /* \"#utility.yul\":10188:10368   */\n    tag_73:\n        /* \"#utility.yul\":10236:10313   */\n      0x4e487b7100000000000000000000000000000000000000000000000000000000\n        /* \"#utility.yul\":10233:10234   */\n      0x00\n        /* \"#utility.yul\":10226:10314   */\n      mstore\n        /* \"#utility.yul\":10333:10337   */\n      0x32\n        /* \"#utility.yul\":10330:10331   */\n      0x04\n        /* \"#utility.yul\":10323:10338   */\n      mstore\n        /* \"#utility.yul\":10357:10361   */\n      0x24\n        /* \"#utility.yul\":10354:10355   */\n      0x00\n        /* \"#utility.yul\":10347:10362   */\n      revert\n        /* \"#utility.yul\":10497:10614   */\n    tag_126:\n        /* \"#utility.yul\":10606:10607   */\n      0x00\n        /* \"#utility.yul\":10603:10604   */\n      dup1\n        /* \"#utility.yul\":10596:10608   */\n      revert\n        /* \"#utility.yul\":10620:10722   */\n    tag_161:\n        /* \"#utility.yul\":10661:10667   */\n      0x00\n        /* \"#utility.yul\":10712:10714   */\n      0x1f\n        /* \"#utility.yul\":10708:10715   */\n      not\n        /* \"#utility.yul\":10703:10705   */\n      0x1f\n        /* \"#utility.yul\":10696:10701   */\n      dup4\n        /* \"#utility.yul\":10692:10706   */\n      add\n        /* \"#utility.yul\":10688:10716   */\n      and\n        /* \"#utility.yul\":10678:10716   */\n      swap1\n      pop\n        /* \"#utility.yul\":10668:10722   */\n      swap2\n      swap1\n      pop\n      jump\t// out\n        /* \"#utility.yul\":10728:10908   */\n    tag_166:\n        /* \"#utility.yul\":10868:10900   */\n      0x456c2062616c616e63652064656c207374616b696e6720657320646520300000\n        /* \"#utility.yul\":10864:10865   */\n      0x00\n        /* \"#utility.yul\":10856:10862   */\n      dup3\n        /* \"#utility.yul\":10852:10866   */\n      add\n        /* \"#utility.yul\":10845:10901   */\n      mstore\n        /* \"#utility.yul\":10834:10908   */\n      pop\n      jump\t// out\n        /* \"#utility.yul\":10914:11080   */\n    tag_171:\n        /* \"#utility.yul\":11054:11072   */\n      0x4e6f206572657320656c206f776e657200000000000000000000000000000000\n        /* \"#utility.yul\":11050:11051   */\n      0x00\n        /* \"#utility.yul\":11042:11048   */\n      dup3\n        /* \"#utility.yul\":11038:11052   */\n      add\n        /* \"#utility.yul\":11031:11073   */\n      mstore\n        /* \"#utility.yul\":11020:11080   */\n      pop\n      jump\t// out\n        /* \"#utility.yul\":11086:11307   */\n    tag_176:\n        /* \"#utility.yul\":11226:11260   */\n      0x4c612063616e7469646164206e6f20707565646520736572206d656e6f722061\n        /* \"#utility.yul\":11222:11223   */\n      0x00\n        /* \"#utility.yul\":11214:11220   */\n      dup3\n        /* \"#utility.yul\":11210:11224   */\n      add\n        /* \"#utility.yul\":11203:11261   */\n      mstore\n        /* \"#utility.yul\":11295:11299   */\n      0x2030000000000000000000000000000000000000000000000000000000000000\n        /* \"#utility.yul\":11290:11292   */\n      0x20\n        /* \"#utility.yul\":11282:11288   */\n      dup3\n        /* \"#utility.yul\":11278:11293   */\n      add\n        /* \"#utility.yul\":11271:11300   */\n      mstore\n        /* \"#utility.yul\":11192:11307   */\n      pop\n      jump\t// out\n        /* \"#utility.yul\":11313:11435   */\n    tag_114:\n        /* \"#utility.yul\":11386:11410   */\n      tag_257\n        /* \"#utility.yul\":11404:11409   */\n      dup2\n        /* \"#utility.yul\":11386:11410   */\n      tag_139\n      jump\t// in\n    tag_257:\n        /* \"#utility.yul\":11379:11384   */\n      dup2\n        /* \"#utility.yul\":11376:11411   */\n      eq\n        /* \"#utility.yul\":11366:11368   */\n      tag_258\n      jumpi\n        /* \"#utility.yul\":11425:11426   */\n      0x00\n        /* \"#utility.yul\":11422:11423   */\n      dup1\n        /* \"#utility.yul\":11415:11427   */\n      revert\n        /* \"#utility.yul\":11366:11368   */\n    tag_258:\n        /* \"#utility.yul\":11356:11435   */\n      pop\n      jump\t// out\n        /* \"#utility.yul\":11441:11557   */\n    tag_118:\n        /* \"#utility.yul\":11511:11532   */\n      tag_260\n        /* \"#utility.yul\":11526:11531   */\n      dup2\n        /* \"#utility.yul\":11511:11532   */\n      tag_143\n      jump\t// in\n    tag_260:\n        /* \"#utility.yul\":11504:11509   */\n      dup2\n        /* \"#utility.yul\":11501:11533   */\n      eq\n        /* \"#utility.yul\":11491:11493   */\n      tag_261\n      jumpi\n        /* \"#utility.yul\":11547:11548   */\n      0x00\n        /* \"#utility.yul\":11544:11545   */\n      dup1\n        /* \"#utility.yul\":11537:11549   */\n      revert\n        /* \"#utility.yul\":11491:11493   */\n    tag_261:\n        /* \"#utility.yul\":11481:11557   */\n      pop\n      jump\t// out\n        /* \"#utility.yul\":11563:11685   */\n    tag_122:\n        /* \"#utility.yul\":11636:11660   */\n      tag_263\n        /* \"#utility.yul\":11654:11659   */\n      dup2\n        /* \"#utility.yul\":11636:11660   */\n      tag_180\n      jump\t// in\n    tag_263:\n        /* \"#utility.yul\":11629:11634   */\n      dup2\n        /* \"#utility.yul\":11626:11661   */\n      eq\n        /* \"#utility.yul\":11616:11618   */\n      tag_264\n      jumpi\n        /* \"#utility.yul\":11675:11676   */\n      0x00\n        /* \"#utility.yul\":11672:11673   */\n      dup1\n        /* \"#utility.yul\":11665:11677   */\n      revert\n        /* \"#utility.yul\":11616:11618   */\n    tag_264:\n        /* \"#utility.yul\":11606:11685   */\n      pop\n      jump\t// out\n\n    auxdata: 0xa26469706673582212209708b1f04f9084175ae3b6877365c28001595bf7efb951622a4ac3f59351bce664736f6c63430008050033\n}\n",
				"bytecode": {
					"linkReferences": {},
					"object": "60806040526040518060400160405280601381526020017f5374656c6c61727420546f6b656e204661726d00000000000000000000000000815250600090805190602001906200005192919062000150565b503480156200005f57600080fd5b506040516200143a3803806200143a83398181016040528101906200008591906200022e565b81600360006101000a81548173ffffffffffffffffffffffffffffffffffffffff021916908373ffffffffffffffffffffffffffffffffffffffff16021790555080600260006101000a81548173ffffffffffffffffffffffffffffffffffffffff021916908373ffffffffffffffffffffffffffffffffffffffff16021790555033600160006101000a81548173ffffffffffffffffffffffffffffffffffffffff021916908373ffffffffffffffffffffffffffffffffffffffff16021790555050506200036f565b8280546200015e90620002d1565b90600052602060002090601f016020900481019282620001825760008555620001ce565b82601f106200019d57805160ff1916838001178555620001ce565b82800160010185558215620001ce579182015b82811115620001cd578251825591602001919060010190620001b0565b5b509050620001dd9190620001e1565b5090565b5b80821115620001fc576000816000905550600101620001e2565b5090565b60008151905062000211816200033b565b92915050565b600081519050620002288162000355565b92915050565b6000806040838503121562000248576200024762000336565b5b6000620002588582860162000217565b92505060206200026b8582860162000200565b9150509250929050565b60006200028282620002b1565b9050919050565b6000620002968262000275565b9050919050565b6000620002aa8262000275565b9050919050565b600073ffffffffffffffffffffffffffffffffffffffff82169050919050565b60006002820490506001821680620002ea57607f821691505b6020821081141562000301576200030062000307565b5b50919050565b7f4e487b7100000000000000000000000000000000000000000000000000000000600052602260045260246000fd5b600080fd5b620003468162000289565b81146200035257600080fd5b50565b62000360816200029d565b81146200036c57600080fd5b50565b6110bb806200037f6000396000f3fe608060405234801561001057600080fd5b50600436106100a95760003560e01c80638da5cb5b116100715780638da5cb5b1461015257806392773cdd14610170578063a5ce413b1461018e578063c93c8f3414610198578063f416d760146101c8578063fd5e6dd1146101e6576100a9565b806306fdde03146100ae57806345bc78ab146100cc57806360ab5852146100fc5780636f49712b146101065780637547c7a314610136575b600080fd5b6100b6610216565b6040516100c39190610caf565b60405180910390f35b6100e660048036038101906100e19190610a6f565b6102a4565b6040516100f39190610d31565b60405180910390f35b6101046102bc565b005b610120600480360381019061011b9190610a6f565b6104b5565b60405161012d9190610c5e565b60405180910390f35b610150600480360381019061014b9190610ac9565b6104d5565b005b61015a610788565b6040516101679190610be3565b60405180910390f35b6101786107ae565b6040516101859190610c94565b60405180910390f35b6101966107d4565b005b6101b260048036038101906101ad9190610a6f565b6109ab565b6040516101bf9190610c5e565b60405180910390f35b6101d06109cb565b6040516101dd9190610c79565b60405180910390f35b61020060048036038101906101fb9190610ac9565b6109f1565b60405161020d9190610be3565b60405180910390f35b6000805461022390610e81565b80601f016020809104026020016040519081016040528092919081815260200182805461024f90610e81565b801561029c5780601f106102715761010080835404028352916020019161029c565b820191906000526020600020905b81548152906001019060200180831161027f57829003601f168201915b505050505081565b60056020528060005260406000206000915090505481565b600160009054906101000a900473ffffffffffffffffffffffffffffffffffffffff1673ffffffffffffffffffffffffffffffffffffffff163373ffffffffffffffffffffffffffffffffffffffff161461034c576040517f08c379a000000000000000000000000000000000000000000000000000000000815260040161034390610cf1565b60405180910390fd5b60005b6004805490508110156104b25760006004828154811061037257610371610f5a565b5b9060005260206000200160009054906101000a900473ffffffffffffffffffffffffffffffffffffffff1690506000600560008373ffffffffffffffffffffffffffffffffffffffff1673ffffffffffffffffffffffffffffffffffffffff168152602001908152602001600020549050600081111561049d57600360009054906101000a900473ffffffffffffffffffffffffffffffffffffffff1673ffffffffffffffffffffffffffffffffffffffff1663a9059cbb83836040518363ffffffff1660e01b8152600401610449929190610c35565b602060405180830381600087803b15801561046357600080fd5b505af1158015610477573d6000803e3d6000fd5b505050506040513d601f19601f8201168201806040525081019061049b9190610a9c565b505b505080806104aa90610eb3565b91505061034f565b50565b60076020528060005260406000206000915054906101000a900460ff1681565b60008111610518576040517f08c379a000000000000000000000000000000000000000000000000000000000815260040161050f90610d11565b60405180910390fd5b600260009054906101000a900473ffffffffffffffffffffffffffffffffffffffff1673ffffffffffffffffffffffffffffffffffffffff166323b872dd3330846040518463ffffffff1660e01b815260040161057793929190610bfe565b602060405180830381600087803b15801561059157600080fd5b505af11580156105a5573d6000803e3d6000fd5b505050506040513d601f19601f820116820180604052508101906105c99190610a9c565b5080600560003373ffffffffffffffffffffffffffffffffffffffff1673ffffffffffffffffffffffffffffffffffffffff16815260200190815260200160002060008282546106199190610d68565b92505081905550600660003373ffffffffffffffffffffffffffffffffffffffff1673ffffffffffffffffffffffffffffffffffffffff16815260200190815260200160002060009054906101000a900460ff166106d5576004339080600181540180825580915050600190039060005260206000200160009091909190916101000a81548173ffffffffffffffffffffffffffffffffffffffff021916908373ffffffffffffffffffffffffffffffffffffffff1602179055505b6001600760003373ffffffffffffffffffffffffffffffffffffffff1673ffffffffffffffffffffffffffffffffffffffff16815260200190815260200160002060006101000a81548160ff0219169083151502179055506001600660003373ffffffffffffffffffffffffffffffffffffffff1673ffffffffffffffffffffffffffffffffffffffff16815260200190815260200160002060006101000a81548160ff02191690831515021790555050565b600160009054906101000a900473ffffffffffffffffffffffffffffffffffffffff1681565b600360009054906101000a900473ffffffffffffffffffffffffffffffffffffffff1681565b6000600560003373ffffffffffffffffffffffffffffffffffffffff1673ffffffffffffffffffffffffffffffffffffffff1681526020019081526020016000205490506000811161085b576040517f08c379a000000000000000000000000000000000000000000000000000000000815260040161085290610cd1565b60405180910390fd5b600260009054906101000a900473ffffffffffffffffffffffffffffffffffffffff1673ffffffffffffffffffffffffffffffffffffffff1663a9059cbb33836040518363ffffffff1660e01b81526004016108b8929190610c35565b602060405180830381600087803b1580156108d257600080fd5b505af11580156108e6573d6000803e3d6000fd5b505050506040513d601f19601f8201168201806040525081019061090a9190610a9c565b506000600560003373ffffffffffffffffffffffffffffffffffffffff1673ffffffffffffffffffffffffffffffffffffffff168152602001908152602001600020819055506000600760003373ffffffffffffffffffffffffffffffffffffffff1673ffffffffffffffffffffffffffffffffffffffff16815260200190815260200160002060006101000a81548160ff02191690831515021790555050565b60066020528060005260406000206000915054906101000a900460ff1681565b600260009054906101000a900473ffffffffffffffffffffffffffffffffffffffff1681565b60048181548110610a0157600080fd5b906000526020600020016000915054906101000a900473ffffffffffffffffffffffffffffffffffffffff1681565b600081359050610a3f81611040565b92915050565b600081519050610a5481611057565b92915050565b600081359050610a698161106e565b92915050565b600060208284031215610a8557610a84610f89565b5b6000610a9384828501610a30565b91505092915050565b600060208284031215610ab257610ab1610f89565b5b6000610ac084828501610a45565b91505092915050565b600060208284031215610adf57610ade610f89565b5b6000610aed84828501610a5a565b91505092915050565b610aff81610dbe565b82525050565b610b0e81610dd0565b82525050565b610b1d81610e06565b82525050565b610b2c81610e2a565b82525050565b6000610b3d82610d4c565b610b478185610d57565b9350610b57818560208601610e4e565b610b6081610f8e565b840191505092915050565b6000610b78601e83610d57565b9150610b8382610f9f565b602082019050919050565b6000610b9b601083610d57565b9150610ba682610fc8565b602082019050919050565b6000610bbe602283610d57565b9150610bc982610ff1565b604082019050919050565b610bdd81610dfc565b82525050565b6000602082019050610bf86000830184610af6565b92915050565b6000606082019050610c136000830186610af6565b610c206020830185610af6565b610c2d6040830184610bd4565b949350505050565b6000604082019050610c4a6000830185610af6565b610c576020830184610bd4565b9392505050565b6000602082019050610c736000830184610b05565b92915050565b6000602082019050610c8e6000830184610b14565b92915050565b6000602082019050610ca96000830184610b23565b92915050565b60006020820190508181036000830152610cc98184610b32565b905092915050565b60006020820190508181036000830152610cea81610b6b565b9050919050565b60006020820190508181036000830152610d0a81610b8e565b9050919050565b60006020820190508181036000830152610d2a81610bb1565b9050919050565b6000602082019050610d466000830184610bd4565b92915050565b600081519050919050565b600082825260208201905092915050565b6000610d7382610dfc565b9150610d7e83610dfc565b9250827fffffffffffffffffffffffffffffffffffffffffffffffffffffffffffffffff03821115610db357610db2610efc565b5b828201905092915050565b6000610dc982610ddc565b9050919050565b60008115159050919050565b600073ffffffffffffffffffffffffffffffffffffffff82169050919050565b6000819050919050565b6000610e1182610e18565b9050919050565b6000610e2382610ddc565b9050919050565b6000610e3582610e3c565b9050919050565b6000610e4782610ddc565b9050919050565b60005b83811015610e6c578082015181840152602081019050610e51565b83811115610e7b576000848401525b50505050565b60006002820490506001821680610e9957607f821691505b60208210811415610ead57610eac610f2b565b5b50919050565b6000610ebe82610dfc565b91507fffffffffffffffffffffffffffffffffffffffffffffffffffffffffffffffff821415610ef157610ef0610efc565b5b600182019050919050565b7f4e487b7100000000000000000000000000000000000000000000000000000000600052601160045260246000fd5b7f4e487b7100000000000000000000000000000000000000000000000000000000600052602260045260246000fd5b7f4e487b7100000000000000000000000000000000000000000000000000000000600052603260045260246000fd5b600080fd5b6000601f19601f8301169050919050565b7f456c2062616c616e63652064656c207374616b696e6720657320646520300000600082015250565b7f4e6f206572657320656c206f776e657200000000000000000000000000000000600082015250565b7f4c612063616e7469646164206e6f20707565646520736572206d656e6f72206160008201527f2030000000000000000000000000000000000000000000000000000000000000602082015250565b61104981610dbe565b811461105457600080fd5b50565b61106081610dd0565b811461106b57600080fd5b50565b61107781610dfc565b811461108257600080fd5b5056fea26469706673582212209708b1f04f9084175ae3b6877365c28001595bf7efb951622a4ac3f59351bce664736f6c63430008050033",
					"opcodes": "PUSH1 0x80 PUSH1 0x40 MSTORE PUSH1 0x40 MLOAD DUP1 PUSH1 0x40 ADD PUSH1 0x40 MSTORE DUP1 PUSH1 0x13 DUP2 MSTORE PUSH1 0x20 ADD PUSH32 0x5374656C6C61727420546F6B656E204661726D00000000000000000000000000 DUP2 MSTORE POP PUSH1 0x0 SWAP1 DUP1 MLOAD SWAP1 PUSH1 0x20 ADD SWAP1 PUSH3 0x51 SWAP3 SWAP2 SWAP1 PUSH3 0x150 JUMP JUMPDEST POP CALLVALUE DUP1 ISZERO PUSH3 0x5F JUMPI PUSH1 0x0 DUP1 REVERT JUMPDEST POP PUSH1 0x40 MLOAD PUSH3 0x143A CODESIZE SUB DUP1 PUSH3 0x143A DUP4 CODECOPY DUP2 DUP2 ADD PUSH1 0x40 MSTORE DUP2 ADD SWAP1 PUSH3 0x85 SWAP2 SWAP1 PUSH3 0x22E JUMP JUMPDEST DUP2 PUSH1 0x3 PUSH1 0x0 PUSH2 0x100 EXP DUP2 SLOAD DUP2 PUSH20 0xFFFFFFFFFFFFFFFFFFFFFFFFFFFFFFFFFFFFFFFF MUL NOT AND SWAP1 DUP4 PUSH20 0xFFFFFFFFFFFFFFFFFFFFFFFFFFFFFFFFFFFFFFFF AND MUL OR SWAP1 SSTORE POP DUP1 PUSH1 0x2 PUSH1 0x0 PUSH2 0x100 EXP DUP2 SLOAD DUP2 PUSH20 0xFFFFFFFFFFFFFFFFFFFFFFFFFFFFFFFFFFFFFFFF MUL NOT AND SWAP1 DUP4 PUSH20 0xFFFFFFFFFFFFFFFFFFFFFFFFFFFFFFFFFFFFFFFF AND MUL OR SWAP1 SSTORE POP CALLER PUSH1 0x1 PUSH1 0x0 PUSH2 0x100 EXP DUP2 SLOAD DUP2 PUSH20 0xFFFFFFFFFFFFFFFFFFFFFFFFFFFFFFFFFFFFFFFF MUL NOT AND SWAP1 DUP4 PUSH20 0xFFFFFFFFFFFFFFFFFFFFFFFFFFFFFFFFFFFFFFFF AND MUL OR SWAP1 SSTORE POP POP POP PUSH3 0x36F JUMP JUMPDEST DUP3 DUP1 SLOAD PUSH3 0x15E SWAP1 PUSH3 0x2D1 JUMP JUMPDEST SWAP1 PUSH1 0x0 MSTORE PUSH1 0x20 PUSH1 0x0 KECCAK256 SWAP1 PUSH1 0x1F ADD PUSH1 0x20 SWAP1 DIV DUP2 ADD SWAP3 DUP3 PUSH3 0x182 JUMPI PUSH1 0x0 DUP6 SSTORE PUSH3 0x1CE JUMP JUMPDEST DUP3 PUSH1 0x1F LT PUSH3 0x19D JUMPI DUP1 MLOAD PUSH1 0xFF NOT AND DUP4 DUP1 ADD OR DUP6 SSTORE PUSH3 0x1CE JUMP JUMPDEST DUP3 DUP1 ADD PUSH1 0x1 ADD DUP6 SSTORE DUP3 ISZERO PUSH3 0x1CE JUMPI SWAP2 DUP3 ADD JUMPDEST DUP3 DUP2 GT ISZERO PUSH3 0x1CD JUMPI DUP3 MLOAD DUP3 SSTORE SWAP2 PUSH1 0x20 ADD SWAP2 SWAP1 PUSH1 0x1 ADD SWAP1 PUSH3 0x1B0 JUMP JUMPDEST JUMPDEST POP SWAP1 POP PUSH3 0x1DD SWAP2 SWAP1 PUSH3 0x1E1 JUMP JUMPDEST POP SWAP1 JUMP JUMPDEST JUMPDEST DUP1 DUP3 GT ISZERO PUSH3 0x1FC JUMPI PUSH1 0x0 DUP2 PUSH1 0x0 SWAP1 SSTORE POP PUSH1 0x1 ADD PUSH3 0x1E2 JUMP JUMPDEST POP SWAP1 JUMP JUMPDEST PUSH1 0x0 DUP2 MLOAD SWAP1 POP PUSH3 0x211 DUP2 PUSH3 0x33B JUMP JUMPDEST SWAP3 SWAP2 POP POP JUMP JUMPDEST PUSH1 0x0 DUP2 MLOAD SWAP1 POP PUSH3 0x228 DUP2 PUSH3 0x355 JUMP JUMPDEST SWAP3 SWAP2 POP POP JUMP JUMPDEST PUSH1 0x0 DUP1 PUSH1 0x40 DUP4 DUP6 SUB SLT ISZERO PUSH3 0x248 JUMPI PUSH3 0x247 PUSH3 0x336 JUMP JUMPDEST JUMPDEST PUSH1 0x0 PUSH3 0x258 DUP6 DUP3 DUP7 ADD PUSH3 0x217 JUMP JUMPDEST SWAP3 POP POP PUSH1 0x20 PUSH3 0x26B DUP6 DUP3 DUP7 ADD PUSH3 0x200 JUMP JUMPDEST SWAP2 POP POP SWAP3 POP SWAP3 SWAP1 POP JUMP JUMPDEST PUSH1 0x0 PUSH3 0x282 DUP3 PUSH3 0x2B1 JUMP JUMPDEST SWAP1 POP SWAP2 SWAP1 POP JUMP JUMPDEST PUSH1 0x0 PUSH3 0x296 DUP3 PUSH3 0x275 JUMP JUMPDEST SWAP1 POP SWAP2 SWAP1 POP JUMP JUMPDEST PUSH1 0x0 PUSH3 0x2AA DUP3 PUSH3 0x275 JUMP JUMPDEST SWAP1 POP SWAP2 SWAP1 POP JUMP JUMPDEST PUSH1 0x0 PUSH20 0xFFFFFFFFFFFFFFFFFFFFFFFFFFFFFFFFFFFFFFFF DUP3 AND SWAP1 POP SWAP2 SWAP1 POP JUMP JUMPDEST PUSH1 0x0 PUSH1 0x2 DUP3 DIV SWAP1 POP PUSH1 0x1 DUP3 AND DUP1 PUSH3 0x2EA JUMPI PUSH1 0x7F DUP3 AND SWAP2 POP JUMPDEST PUSH1 0x20 DUP3 LT DUP2 EQ ISZERO PUSH3 0x301 JUMPI PUSH3 0x300 PUSH3 0x307 JUMP JUMPDEST JUMPDEST POP SWAP2 SWAP1 POP JUMP JUMPDEST PUSH32 0x4E487B7100000000000000000000000000000000000000000000000000000000 PUSH1 0x0 MSTORE PUSH1 0x22 PUSH1 0x4 MSTORE PUSH1 0x24 PUSH1 0x0 REVERT JUMPDEST PUSH1 0x0 DUP1 REVERT JUMPDEST PUSH3 0x346 DUP2 PUSH3 0x289 JUMP JUMPDEST DUP2 EQ PUSH3 0x352 JUMPI PUSH1 0x0 DUP1 REVERT JUMPDEST POP JUMP JUMPDEST PUSH3 0x360 DUP2 PUSH3 0x29D JUMP JUMPDEST DUP2 EQ PUSH3 0x36C JUMPI PUSH1 0x0 DUP1 REVERT JUMPDEST POP JUMP JUMPDEST PUSH2 0x10BB DUP1 PUSH3 0x37F PUSH1 0x0 CODECOPY PUSH1 0x0 RETURN INVALID PUSH1 0x80 PUSH1 0x40 MSTORE CALLVALUE DUP1 ISZERO PUSH2 0x10 JUMPI PUSH1 0x0 DUP1 REVERT JUMPDEST POP PUSH1 0x4 CALLDATASIZE LT PUSH2 0xA9 JUMPI PUSH1 0x0 CALLDATALOAD PUSH1 0xE0 SHR DUP1 PUSH4 0x8DA5CB5B GT PUSH2 0x71 JUMPI DUP1 PUSH4 0x8DA5CB5B EQ PUSH2 0x152 JUMPI DUP1 PUSH4 0x92773CDD EQ PUSH2 0x170 JUMPI DUP1 PUSH4 0xA5CE413B EQ PUSH2 0x18E JUMPI DUP1 PUSH4 0xC93C8F34 EQ PUSH2 0x198 JUMPI DUP1 PUSH4 0xF416D760 EQ PUSH2 0x1C8 JUMPI DUP1 PUSH4 0xFD5E6DD1 EQ PUSH2 0x1E6 JUMPI PUSH2 0xA9 JUMP JUMPDEST DUP1 PUSH4 0x6FDDE03 EQ PUSH2 0xAE JUMPI DUP1 PUSH4 0x45BC78AB EQ PUSH2 0xCC JUMPI DUP1 PUSH4 0x60AB5852 EQ PUSH2 0xFC JUMPI DUP1 PUSH4 0x6F49712B EQ PUSH2 0x106 JUMPI DUP1 PUSH4 0x7547C7A3 EQ PUSH2 0x136 JUMPI JUMPDEST PUSH1 0x0 DUP1 REVERT JUMPDEST PUSH2 0xB6 PUSH2 0x216 JUMP JUMPDEST PUSH1 0x40 MLOAD PUSH2 0xC3 SWAP2 SWAP1 PUSH2 0xCAF JUMP JUMPDEST PUSH1 0x40 MLOAD DUP1 SWAP2 SUB SWAP1 RETURN JUMPDEST PUSH2 0xE6 PUSH1 0x4 DUP1 CALLDATASIZE SUB DUP2 ADD SWAP1 PUSH2 0xE1 SWAP2 SWAP1 PUSH2 0xA6F JUMP JUMPDEST PUSH2 0x2A4 JUMP JUMPDEST PUSH1 0x40 MLOAD PUSH2 0xF3 SWAP2 SWAP1 PUSH2 0xD31 JUMP JUMPDEST PUSH1 0x40 MLOAD DUP1 SWAP2 SUB SWAP1 RETURN JUMPDEST PUSH2 0x104 PUSH2 0x2BC JUMP JUMPDEST STOP JUMPDEST PUSH2 0x120 PUSH1 0x4 DUP1 CALLDATASIZE SUB DUP2 ADD SWAP1 PUSH2 0x11B SWAP2 SWAP1 PUSH2 0xA6F JUMP JUMPDEST PUSH2 0x4B5 JUMP JUMPDEST PUSH1 0x40 MLOAD PUSH2 0x12D SWAP2 SWAP1 PUSH2 0xC5E JUMP JUMPDEST PUSH1 0x40 MLOAD DUP1 SWAP2 SUB SWAP1 RETURN JUMPDEST PUSH2 0x150 PUSH1 0x4 DUP1 CALLDATASIZE SUB DUP2 ADD SWAP1 PUSH2 0x14B SWAP2 SWAP1 PUSH2 0xAC9 JUMP JUMPDEST PUSH2 0x4D5 JUMP JUMPDEST STOP JUMPDEST PUSH2 0x15A PUSH2 0x788 JUMP JUMPDEST PUSH1 0x40 MLOAD PUSH2 0x167 SWAP2 SWAP1 PUSH2 0xBE3 JUMP JUMPDEST PUSH1 0x40 MLOAD DUP1 SWAP2 SUB SWAP1 RETURN JUMPDEST PUSH2 0x178 PUSH2 0x7AE JUMP JUMPDEST PUSH1 0x40 MLOAD PUSH2 0x185 SWAP2 SWAP1 PUSH2 0xC94 JUMP JUMPDEST PUSH1 0x40 MLOAD DUP1 SWAP2 SUB SWAP1 RETURN JUMPDEST PUSH2 0x196 PUSH2 0x7D4 JUMP JUMPDEST STOP JUMPDEST PUSH2 0x1B2 PUSH1 0x4 DUP1 CALLDATASIZE SUB DUP2 ADD SWAP1 PUSH2 0x1AD SWAP2 SWAP1 PUSH2 0xA6F JUMP JUMPDEST PUSH2 0x9AB JUMP JUMPDEST PUSH1 0x40 MLOAD PUSH2 0x1BF SWAP2 SWAP1 PUSH2 0xC5E JUMP JUMPDEST PUSH1 0x40 MLOAD DUP1 SWAP2 SUB SWAP1 RETURN JUMPDEST PUSH2 0x1D0 PUSH2 0x9CB JUMP JUMPDEST PUSH1 0x40 MLOAD PUSH2 0x1DD SWAP2 SWAP1 PUSH2 0xC79 JUMP JUMPDEST PUSH1 0x40 MLOAD DUP1 SWAP2 SUB SWAP1 RETURN JUMPDEST PUSH2 0x200 PUSH1 0x4 DUP1 CALLDATASIZE SUB DUP2 ADD SWAP1 PUSH2 0x1FB SWAP2 SWAP1 PUSH2 0xAC9 JUMP JUMPDEST PUSH2 0x9F1 JUMP JUMPDEST PUSH1 0x40 MLOAD PUSH2 0x20D SWAP2 SWAP1 PUSH2 0xBE3 JUMP JUMPDEST PUSH1 0x40 MLOAD DUP1 SWAP2 SUB SWAP1 RETURN JUMPDEST PUSH1 0x0 DUP1 SLOAD PUSH2 0x223 SWAP1 PUSH2 0xE81 JUMP JUMPDEST DUP1 PUSH1 0x1F ADD PUSH1 0x20 DUP1 SWAP2 DIV MUL PUSH1 0x20 ADD PUSH1 0x40 MLOAD SWAP1 DUP2 ADD PUSH1 0x40 MSTORE DUP1 SWAP3 SWAP2 SWAP1 DUP2 DUP2 MSTORE PUSH1 0x20 ADD DUP3 DUP1 SLOAD PUSH2 0x24F SWAP1 PUSH2 0xE81 JUMP JUMPDEST DUP1 ISZERO PUSH2 0x29C JUMPI DUP1 PUSH1 0x1F LT PUSH2 0x271 JUMPI PUSH2 0x100 DUP1 DUP4 SLOAD DIV MUL DUP4 MSTORE SWAP2 PUSH1 0x20 ADD SWAP2 PUSH2 0x29C JUMP JUMPDEST DUP3 ADD SWAP2 SWAP1 PUSH1 0x0 MSTORE PUSH1 0x20 PUSH1 0x0 KECCAK256 SWAP1 JUMPDEST DUP2 SLOAD DUP2 MSTORE SWAP1 PUSH1 0x1 ADD SWAP1 PUSH1 0x20 ADD DUP1 DUP4 GT PUSH2 0x27F JUMPI DUP3 SWAP1 SUB PUSH1 0x1F AND DUP3 ADD SWAP2 JUMPDEST POP POP POP POP POP DUP2 JUMP JUMPDEST PUSH1 0x5 PUSH1 0x20 MSTORE DUP1 PUSH1 0x0 MSTORE PUSH1 0x40 PUSH1 0x0 KECCAK256 PUSH1 0x0 SWAP2 POP SWAP1 POP SLOAD DUP2 JUMP JUMPDEST PUSH1 0x1 PUSH1 0x0 SWAP1 SLOAD SWAP1 PUSH2 0x100 EXP SWAP1 DIV PUSH20 0xFFFFFFFFFFFFFFFFFFFFFFFFFFFFFFFFFFFFFFFF AND PUSH20 0xFFFFFFFFFFFFFFFFFFFFFFFFFFFFFFFFFFFFFFFF AND CALLER PUSH20 0xFFFFFFFFFFFFFFFFFFFFFFFFFFFFFFFFFFFFFFFF AND EQ PUSH2 0x34C JUMPI PUSH1 0x40 MLOAD PUSH32 0x8C379A000000000000000000000000000000000000000000000000000000000 DUP2 MSTORE PUSH1 0x4 ADD PUSH2 0x343 SWAP1 PUSH2 0xCF1 JUMP JUMPDEST PUSH1 0x40 MLOAD DUP1 SWAP2 SUB SWAP1 REVERT JUMPDEST PUSH1 0x0 JUMPDEST PUSH1 0x4 DUP1 SLOAD SWAP1 POP DUP2 LT ISZERO PUSH2 0x4B2 JUMPI PUSH1 0x0 PUSH1 0x4 DUP3 DUP2 SLOAD DUP2 LT PUSH2 0x372 JUMPI PUSH2 0x371 PUSH2 0xF5A JUMP JUMPDEST JUMPDEST SWAP1 PUSH1 0x0 MSTORE PUSH1 0x20 PUSH1 0x0 KECCAK256 ADD PUSH1 0x0 SWAP1 SLOAD SWAP1 PUSH2 0x100 EXP SWAP1 DIV PUSH20 0xFFFFFFFFFFFFFFFFFFFFFFFFFFFFFFFFFFFFFFFF AND SWAP1 POP PUSH1 0x0 PUSH1 0x5 PUSH1 0x0 DUP4 PUSH20 0xFFFFFFFFFFFFFFFFFFFFFFFFFFFFFFFFFFFFFFFF AND PUSH20 0xFFFFFFFFFFFFFFFFFFFFFFFFFFFFFFFFFFFFFFFF AND DUP2 MSTORE PUSH1 0x20 ADD SWAP1 DUP2 MSTORE PUSH1 0x20 ADD PUSH1 0x0 KECCAK256 SLOAD SWAP1 POP PUSH1 0x0 DUP2 GT ISZERO PUSH2 0x49D JUMPI PUSH1 0x3 PUSH1 0x0 SWAP1 SLOAD SWAP1 PUSH2 0x100 EXP SWAP1 DIV PUSH20 0xFFFFFFFFFFFFFFFFFFFFFFFFFFFFFFFFFFFFFFFF AND PUSH20 0xFFFFFFFFFFFFFFFFFFFFFFFFFFFFFFFFFFFFFFFF AND PUSH4 0xA9059CBB DUP4 DUP4 PUSH1 0x40 MLOAD DUP4 PUSH4 0xFFFFFFFF AND PUSH1 0xE0 SHL DUP2 MSTORE PUSH1 0x4 ADD PUSH2 0x449 SWAP3 SWAP2 SWAP1 PUSH2 0xC35 JUMP JUMPDEST PUSH1 0x20 PUSH1 0x40 MLOAD DUP1 DUP4 SUB DUP2 PUSH1 0x0 DUP8 DUP1 EXTCODESIZE ISZERO DUP1 ISZERO PUSH2 0x463 JUMPI PUSH1 0x0 DUP1 REVERT JUMPDEST POP GAS CALL ISZERO DUP1 ISZERO PUSH2 0x477 JUMPI RETURNDATASIZE PUSH1 0x0 DUP1 RETURNDATACOPY RETURNDATASIZE PUSH1 0x0 REVERT JUMPDEST POP POP POP POP PUSH1 0x40 MLOAD RETURNDATASIZE PUSH1 0x1F NOT PUSH1 0x1F DUP3 ADD AND DUP3 ADD DUP1 PUSH1 0x40 MSTORE POP DUP2 ADD SWAP1 PUSH2 0x49B SWAP2 SWAP1 PUSH2 0xA9C JUMP JUMPDEST POP JUMPDEST POP POP DUP1 DUP1 PUSH2 0x4AA SWAP1 PUSH2 0xEB3 JUMP JUMPDEST SWAP2 POP POP PUSH2 0x34F JUMP JUMPDEST POP JUMP JUMPDEST PUSH1 0x7 PUSH1 0x20 MSTORE DUP1 PUSH1 0x0 MSTORE PUSH1 0x40 PUSH1 0x0 KECCAK256 PUSH1 0x0 SWAP2 POP SLOAD SWAP1 PUSH2 0x100 EXP SWAP1 DIV PUSH1 0xFF AND DUP2 JUMP JUMPDEST PUSH1 0x0 DUP2 GT PUSH2 0x518 JUMPI PUSH1 0x40 MLOAD PUSH32 0x8C379A000000000000000000000000000000000000000000000000000000000 DUP2 MSTORE PUSH1 0x4 ADD PUSH2 0x50F SWAP1 PUSH2 0xD11 JUMP JUMPDEST PUSH1 0x40 MLOAD DUP1 SWAP2 SUB SWAP1 REVERT JUMPDEST PUSH1 0x2 PUSH1 0x0 SWAP1 SLOAD SWAP1 PUSH2 0x100 EXP SWAP1 DIV PUSH20 0xFFFFFFFFFFFFFFFFFFFFFFFFFFFFFFFFFFFFFFFF AND PUSH20 0xFFFFFFFFFFFFFFFFFFFFFFFFFFFFFFFFFFFFFFFF AND PUSH4 0x23B872DD CALLER ADDRESS DUP5 PUSH1 0x40 MLOAD DUP5 PUSH4 0xFFFFFFFF AND PUSH1 0xE0 SHL DUP2 MSTORE PUSH1 0x4 ADD PUSH2 0x577 SWAP4 SWAP3 SWAP2 SWAP1 PUSH2 0xBFE JUMP JUMPDEST PUSH1 0x20 PUSH1 0x40 MLOAD DUP1 DUP4 SUB DUP2 PUSH1 0x0 DUP8 DUP1 EXTCODESIZE ISZERO DUP1 ISZERO PUSH2 0x591 JUMPI PUSH1 0x0 DUP1 REVERT JUMPDEST POP GAS CALL ISZERO DUP1 ISZERO PUSH2 0x5A5 JUMPI RETURNDATASIZE PUSH1 0x0 DUP1 RETURNDATACOPY RETURNDATASIZE PUSH1 0x0 REVERT JUMPDEST POP POP POP POP PUSH1 0x40 MLOAD RETURNDATASIZE PUSH1 0x1F NOT PUSH1 0x1F DUP3 ADD AND DUP3 ADD DUP1 PUSH1 0x40 MSTORE POP DUP2 ADD SWAP1 PUSH2 0x5C9 SWAP2 SWAP1 PUSH2 0xA9C JUMP JUMPDEST POP DUP1 PUSH1 0x5 PUSH1 0x0 CALLER PUSH20 0xFFFFFFFFFFFFFFFFFFFFFFFFFFFFFFFFFFFFFFFF AND PUSH20 0xFFFFFFFFFFFFFFFFFFFFFFFFFFFFFFFFFFFFFFFF AND DUP2 MSTORE PUSH1 0x20 ADD SWAP1 DUP2 MSTORE PUSH1 0x20 ADD PUSH1 0x0 KECCAK256 PUSH1 0x0 DUP3 DUP3 SLOAD PUSH2 0x619 SWAP2 SWAP1 PUSH2 0xD68 JUMP JUMPDEST SWAP3 POP POP DUP2 SWAP1 SSTORE POP PUSH1 0x6 PUSH1 0x0 CALLER PUSH20 0xFFFFFFFFFFFFFFFFFFFFFFFFFFFFFFFFFFFFFFFF AND PUSH20 0xFFFFFFFFFFFFFFFFFFFFFFFFFFFFFFFFFFFFFFFF AND DUP2 MSTORE PUSH1 0x20 ADD SWAP1 DUP2 MSTORE PUSH1 0x20 ADD PUSH1 0x0 KECCAK256 PUSH1 0x0 SWAP1 SLOAD SWAP1 PUSH2 0x100 EXP SWAP1 DIV PUSH1 0xFF AND PUSH2 0x6D5 JUMPI PUSH1 0x4 CALLER SWAP1 DUP1 PUSH1 0x1 DUP2 SLOAD ADD DUP1 DUP3 SSTORE DUP1 SWAP2 POP POP PUSH1 0x1 SWAP1 SUB SWAP1 PUSH1 0x0 MSTORE PUSH1 0x20 PUSH1 0x0 KECCAK256 ADD PUSH1 0x0 SWAP1 SWAP2 SWAP1 SWAP2 SWAP1 SWAP2 PUSH2 0x100 EXP DUP2 SLOAD DUP2 PUSH20 0xFFFFFFFFFFFFFFFFFFFFFFFFFFFFFFFFFFFFFFFF MUL NOT AND SWAP1 DUP4 PUSH20 0xFFFFFFFFFFFFFFFFFFFFFFFFFFFFFFFFFFFFFFFF AND MUL OR SWAP1 SSTORE POP JUMPDEST PUSH1 0x1 PUSH1 0x7 PUSH1 0x0 CALLER PUSH20 0xFFFFFFFFFFFFFFFFFFFFFFFFFFFFFFFFFFFFFFFF AND PUSH20 0xFFFFFFFFFFFFFFFFFFFFFFFFFFFFFFFFFFFFFFFF AND DUP2 MSTORE PUSH1 0x20 ADD SWAP1 DUP2 MSTORE PUSH1 0x20 ADD PUSH1 0x0 KECCAK256 PUSH1 0x0 PUSH2 0x100 EXP DUP2 SLOAD DUP2 PUSH1 0xFF MUL NOT AND SWAP1 DUP4 ISZERO ISZERO MUL OR SWAP1 SSTORE POP PUSH1 0x1 PUSH1 0x6 PUSH1 0x0 CALLER PUSH20 0xFFFFFFFFFFFFFFFFFFFFFFFFFFFFFFFFFFFFFFFF AND PUSH20 0xFFFFFFFFFFFFFFFFFFFFFFFFFFFFFFFFFFFFFFFF AND DUP2 MSTORE PUSH1 0x20 ADD SWAP1 DUP2 MSTORE PUSH1 0x20 ADD PUSH1 0x0 KECCAK256 PUSH1 0x0 PUSH2 0x100 EXP DUP2 SLOAD DUP2 PUSH1 0xFF MUL NOT AND SWAP1 DUP4 ISZERO ISZERO MUL OR SWAP1 SSTORE POP POP JUMP JUMPDEST PUSH1 0x1 PUSH1 0x0 SWAP1 SLOAD SWAP1 PUSH2 0x100 EXP SWAP1 DIV PUSH20 0xFFFFFFFFFFFFFFFFFFFFFFFFFFFFFFFFFFFFFFFF AND DUP2 JUMP JUMPDEST PUSH1 0x3 PUSH1 0x0 SWAP1 SLOAD SWAP1 PUSH2 0x100 EXP SWAP1 DIV PUSH20 0xFFFFFFFFFFFFFFFFFFFFFFFFFFFFFFFFFFFFFFFF AND DUP2 JUMP JUMPDEST PUSH1 0x0 PUSH1 0x5 PUSH1 0x0 CALLER PUSH20 0xFFFFFFFFFFFFFFFFFFFFFFFFFFFFFFFFFFFFFFFF AND PUSH20 0xFFFFFFFFFFFFFFFFFFFFFFFFFFFFFFFFFFFFFFFF AND DUP2 MSTORE PUSH1 0x20 ADD SWAP1 DUP2 MSTORE PUSH1 0x20 ADD PUSH1 0x0 KECCAK256 SLOAD SWAP1 POP PUSH1 0x0 DUP2 GT PUSH2 0x85B JUMPI PUSH1 0x40 MLOAD PUSH32 0x8C379A000000000000000000000000000000000000000000000000000000000 DUP2 MSTORE PUSH1 0x4 ADD PUSH2 0x852 SWAP1 PUSH2 0xCD1 JUMP JUMPDEST PUSH1 0x40 MLOAD DUP1 SWAP2 SUB SWAP1 REVERT JUMPDEST PUSH1 0x2 PUSH1 0x0 SWAP1 SLOAD SWAP1 PUSH2 0x100 EXP SWAP1 DIV PUSH20 0xFFFFFFFFFFFFFFFFFFFFFFFFFFFFFFFFFFFFFFFF AND PUSH20 0xFFFFFFFFFFFFFFFFFFFFFFFFFFFFFFFFFFFFFFFF AND PUSH4 0xA9059CBB CALLER DUP4 PUSH1 0x40 MLOAD DUP4 PUSH4 0xFFFFFFFF AND PUSH1 0xE0 SHL DUP2 MSTORE PUSH1 0x4 ADD PUSH2 0x8B8 SWAP3 SWAP2 SWAP1 PUSH2 0xC35 JUMP JUMPDEST PUSH1 0x20 PUSH1 0x40 MLOAD DUP1 DUP4 SUB DUP2 PUSH1 0x0 DUP8 DUP1 EXTCODESIZE ISZERO DUP1 ISZERO PUSH2 0x8D2 JUMPI PUSH1 0x0 DUP1 REVERT JUMPDEST POP GAS CALL ISZERO DUP1 ISZERO PUSH2 0x8E6 JUMPI RETURNDATASIZE PUSH1 0x0 DUP1 RETURNDATACOPY RETURNDATASIZE PUSH1 0x0 REVERT JUMPDEST POP POP POP POP PUSH1 0x40 MLOAD RETURNDATASIZE PUSH1 0x1F NOT PUSH1 0x1F DUP3 ADD AND DUP3 ADD DUP1 PUSH1 0x40 MSTORE POP DUP2 ADD SWAP1 PUSH2 0x90A SWAP2 SWAP1 PUSH2 0xA9C JUMP JUMPDEST POP PUSH1 0x0 PUSH1 0x5 PUSH1 0x0 CALLER PUSH20 0xFFFFFFFFFFFFFFFFFFFFFFFFFFFFFFFFFFFFFFFF AND PUSH20 0xFFFFFFFFFFFFFFFFFFFFFFFFFFFFFFFFFFFFFFFF AND DUP2 MSTORE PUSH1 0x20 ADD SWAP1 DUP2 MSTORE PUSH1 0x20 ADD PUSH1 0x0 KECCAK256 DUP2 SWAP1 SSTORE POP PUSH1 0x0 PUSH1 0x7 PUSH1 0x0 CALLER PUSH20 0xFFFFFFFFFFFFFFFFFFFFFFFFFFFFFFFFFFFFFFFF AND PUSH20 0xFFFFFFFFFFFFFFFFFFFFFFFFFFFFFFFFFFFFFFFF AND DUP2 MSTORE PUSH1 0x20 ADD SWAP1 DUP2 MSTORE PUSH1 0x20 ADD PUSH1 0x0 KECCAK256 PUSH1 0x0 PUSH2 0x100 EXP DUP2 SLOAD DUP2 PUSH1 0xFF MUL NOT AND SWAP1 DUP4 ISZERO ISZERO MUL OR SWAP1 SSTORE POP POP JUMP JUMPDEST PUSH1 0x6 PUSH1 0x20 MSTORE DUP1 PUSH1 0x0 MSTORE PUSH1 0x40 PUSH1 0x0 KECCAK256 PUSH1 0x0 SWAP2 POP SLOAD SWAP1 PUSH2 0x100 EXP SWAP1 DIV PUSH1 0xFF AND DUP2 JUMP JUMPDEST PUSH1 0x2 PUSH1 0x0 SWAP1 SLOAD SWAP1 PUSH2 0x100 EXP SWAP1 DIV PUSH20 0xFFFFFFFFFFFFFFFFFFFFFFFFFFFFFFFFFFFFFFFF AND DUP2 JUMP JUMPDEST PUSH1 0x4 DUP2 DUP2 SLOAD DUP2 LT PUSH2 0xA01 JUMPI PUSH1 0x0 DUP1 REVERT JUMPDEST SWAP1 PUSH1 0x0 MSTORE PUSH1 0x20 PUSH1 0x0 KECCAK256 ADD PUSH1 0x0 SWAP2 POP SLOAD SWAP1 PUSH2 0x100 EXP SWAP1 DIV PUSH20 0xFFFFFFFFFFFFFFFFFFFFFFFFFFFFFFFFFFFFFFFF AND DUP2 JUMP JUMPDEST PUSH1 0x0 DUP2 CALLDATALOAD SWAP1 POP PUSH2 0xA3F DUP2 PUSH2 0x1040 JUMP JUMPDEST SWAP3 SWAP2 POP POP JUMP JUMPDEST PUSH1 0x0 DUP2 MLOAD SWAP1 POP PUSH2 0xA54 DUP2 PUSH2 0x1057 JUMP JUMPDEST SWAP3 SWAP2 POP POP JUMP JUMPDEST PUSH1 0x0 DUP2 CALLDATALOAD SWAP1 POP PUSH2 0xA69 DUP2 PUSH2 0x106E JUMP JUMPDEST SWAP3 SWAP2 POP POP JUMP JUMPDEST PUSH1 0x0 PUSH1 0x20 DUP3 DUP5 SUB SLT ISZERO PUSH2 0xA85 JUMPI PUSH2 0xA84 PUSH2 0xF89 JUMP JUMPDEST JUMPDEST PUSH1 0x0 PUSH2 0xA93 DUP5 DUP3 DUP6 ADD PUSH2 0xA30 JUMP JUMPDEST SWAP2 POP POP SWAP3 SWAP2 POP POP JUMP JUMPDEST PUSH1 0x0 PUSH1 0x20 DUP3 DUP5 SUB SLT ISZERO PUSH2 0xAB2 JUMPI PUSH2 0xAB1 PUSH2 0xF89 JUMP JUMPDEST JUMPDEST PUSH1 0x0 PUSH2 0xAC0 DUP5 DUP3 DUP6 ADD PUSH2 0xA45 JUMP JUMPDEST SWAP2 POP POP SWAP3 SWAP2 POP POP JUMP JUMPDEST PUSH1 0x0 PUSH1 0x20 DUP3 DUP5 SUB SLT ISZERO PUSH2 0xADF JUMPI PUSH2 0xADE PUSH2 0xF89 JUMP JUMPDEST JUMPDEST PUSH1 0x0 PUSH2 0xAED DUP5 DUP3 DUP6 ADD PUSH2 0xA5A JUMP JUMPDEST SWAP2 POP POP SWAP3 SWAP2 POP POP JUMP JUMPDEST PUSH2 0xAFF DUP2 PUSH2 0xDBE JUMP JUMPDEST DUP3 MSTORE POP POP JUMP JUMPDEST PUSH2 0xB0E DUP2 PUSH2 0xDD0 JUMP JUMPDEST DUP3 MSTORE POP POP JUMP JUMPDEST PUSH2 0xB1D DUP2 PUSH2 0xE06 JUMP JUMPDEST DUP3 MSTORE POP POP JUMP JUMPDEST PUSH2 0xB2C DUP2 PUSH2 0xE2A JUMP JUMPDEST DUP3 MSTORE POP POP JUMP JUMPDEST PUSH1 0x0 PUSH2 0xB3D DUP3 PUSH2 0xD4C JUMP JUMPDEST PUSH2 0xB47 DUP2 DUP6 PUSH2 0xD57 JUMP JUMPDEST SWAP4 POP PUSH2 0xB57 DUP2 DUP6 PUSH1 0x20 DUP7 ADD PUSH2 0xE4E JUMP JUMPDEST PUSH2 0xB60 DUP2 PUSH2 0xF8E JUMP JUMPDEST DUP5 ADD SWAP2 POP POP SWAP3 SWAP2 POP POP JUMP JUMPDEST PUSH1 0x0 PUSH2 0xB78 PUSH1 0x1E DUP4 PUSH2 0xD57 JUMP JUMPDEST SWAP2 POP PUSH2 0xB83 DUP3 PUSH2 0xF9F JUMP JUMPDEST PUSH1 0x20 DUP3 ADD SWAP1 POP SWAP2 SWAP1 POP JUMP JUMPDEST PUSH1 0x0 PUSH2 0xB9B PUSH1 0x10 DUP4 PUSH2 0xD57 JUMP JUMPDEST SWAP2 POP PUSH2 0xBA6 DUP3 PUSH2 0xFC8 JUMP JUMPDEST PUSH1 0x20 DUP3 ADD SWAP1 POP SWAP2 SWAP1 POP JUMP JUMPDEST PUSH1 0x0 PUSH2 0xBBE PUSH1 0x22 DUP4 PUSH2 0xD57 JUMP JUMPDEST SWAP2 POP PUSH2 0xBC9 DUP3 PUSH2 0xFF1 JUMP JUMPDEST PUSH1 0x40 DUP3 ADD SWAP1 POP SWAP2 SWAP1 POP JUMP JUMPDEST PUSH2 0xBDD DUP2 PUSH2 0xDFC JUMP JUMPDEST DUP3 MSTORE POP POP JUMP JUMPDEST PUSH1 0x0 PUSH1 0x20 DUP3 ADD SWAP1 POP PUSH2 0xBF8 PUSH1 0x0 DUP4 ADD DUP5 PUSH2 0xAF6 JUMP JUMPDEST SWAP3 SWAP2 POP POP JUMP JUMPDEST PUSH1 0x0 PUSH1 0x60 DUP3 ADD SWAP1 POP PUSH2 0xC13 PUSH1 0x0 DUP4 ADD DUP7 PUSH2 0xAF6 JUMP JUMPDEST PUSH2 0xC20 PUSH1 0x20 DUP4 ADD DUP6 PUSH2 0xAF6 JUMP JUMPDEST PUSH2 0xC2D PUSH1 0x40 DUP4 ADD DUP5 PUSH2 0xBD4 JUMP JUMPDEST SWAP5 SWAP4 POP POP POP POP JUMP JUMPDEST PUSH1 0x0 PUSH1 0x40 DUP3 ADD SWAP1 POP PUSH2 0xC4A PUSH1 0x0 DUP4 ADD DUP6 PUSH2 0xAF6 JUMP JUMPDEST PUSH2 0xC57 PUSH1 0x20 DUP4 ADD DUP5 PUSH2 0xBD4 JUMP JUMPDEST SWAP4 SWAP3 POP POP POP JUMP JUMPDEST PUSH1 0x0 PUSH1 0x20 DUP3 ADD SWAP1 POP PUSH2 0xC73 PUSH1 0x0 DUP4 ADD DUP5 PUSH2 0xB05 JUMP JUMPDEST SWAP3 SWAP2 POP POP JUMP JUMPDEST PUSH1 0x0 PUSH1 0x20 DUP3 ADD SWAP1 POP PUSH2 0xC8E PUSH1 0x0 DUP4 ADD DUP5 PUSH2 0xB14 JUMP JUMPDEST SWAP3 SWAP2 POP POP JUMP JUMPDEST PUSH1 0x0 PUSH1 0x20 DUP3 ADD SWAP1 POP PUSH2 0xCA9 PUSH1 0x0 DUP4 ADD DUP5 PUSH2 0xB23 JUMP JUMPDEST SWAP3 SWAP2 POP POP JUMP JUMPDEST PUSH1 0x0 PUSH1 0x20 DUP3 ADD SWAP1 POP DUP2 DUP2 SUB PUSH1 0x0 DUP4 ADD MSTORE PUSH2 0xCC9 DUP2 DUP5 PUSH2 0xB32 JUMP JUMPDEST SWAP1 POP SWAP3 SWAP2 POP POP JUMP JUMPDEST PUSH1 0x0 PUSH1 0x20 DUP3 ADD SWAP1 POP DUP2 DUP2 SUB PUSH1 0x0 DUP4 ADD MSTORE PUSH2 0xCEA DUP2 PUSH2 0xB6B JUMP JUMPDEST SWAP1 POP SWAP2 SWAP1 POP JUMP JUMPDEST PUSH1 0x0 PUSH1 0x20 DUP3 ADD SWAP1 POP DUP2 DUP2 SUB PUSH1 0x0 DUP4 ADD MSTORE PUSH2 0xD0A DUP2 PUSH2 0xB8E JUMP JUMPDEST SWAP1 POP SWAP2 SWAP1 POP JUMP JUMPDEST PUSH1 0x0 PUSH1 0x20 DUP3 ADD SWAP1 POP DUP2 DUP2 SUB PUSH1 0x0 DUP4 ADD MSTORE PUSH2 0xD2A DUP2 PUSH2 0xBB1 JUMP JUMPDEST SWAP1 POP SWAP2 SWAP1 POP JUMP JUMPDEST PUSH1 0x0 PUSH1 0x20 DUP3 ADD SWAP1 POP PUSH2 0xD46 PUSH1 0x0 DUP4 ADD DUP5 PUSH2 0xBD4 JUMP JUMPDEST SWAP3 SWAP2 POP POP JUMP JUMPDEST PUSH1 0x0 DUP2 MLOAD SWAP1 POP SWAP2 SWAP1 POP JUMP JUMPDEST PUSH1 0x0 DUP3 DUP3 MSTORE PUSH1 0x20 DUP3 ADD SWAP1 POP SWAP3 SWAP2 POP POP JUMP JUMPDEST PUSH1 0x0 PUSH2 0xD73 DUP3 PUSH2 0xDFC JUMP JUMPDEST SWAP2 POP PUSH2 0xD7E DUP4 PUSH2 0xDFC JUMP JUMPDEST SWAP3 POP DUP3 PUSH32 0xFFFFFFFFFFFFFFFFFFFFFFFFFFFFFFFFFFFFFFFFFFFFFFFFFFFFFFFFFFFFFFFF SUB DUP3 GT ISZERO PUSH2 0xDB3 JUMPI PUSH2 0xDB2 PUSH2 0xEFC JUMP JUMPDEST JUMPDEST DUP3 DUP3 ADD SWAP1 POP SWAP3 SWAP2 POP POP JUMP JUMPDEST PUSH1 0x0 PUSH2 0xDC9 DUP3 PUSH2 0xDDC JUMP JUMPDEST SWAP1 POP SWAP2 SWAP1 POP JUMP JUMPDEST PUSH1 0x0 DUP2 ISZERO ISZERO SWAP1 POP SWAP2 SWAP1 POP JUMP JUMPDEST PUSH1 0x0 PUSH20 0xFFFFFFFFFFFFFFFFFFFFFFFFFFFFFFFFFFFFFFFF DUP3 AND SWAP1 POP SWAP2 SWAP1 POP JUMP JUMPDEST PUSH1 0x0 DUP2 SWAP1 POP SWAP2 SWAP1 POP JUMP JUMPDEST PUSH1 0x0 PUSH2 0xE11 DUP3 PUSH2 0xE18 JUMP JUMPDEST SWAP1 POP SWAP2 SWAP1 POP JUMP JUMPDEST PUSH1 0x0 PUSH2 0xE23 DUP3 PUSH2 0xDDC JUMP JUMPDEST SWAP1 POP SWAP2 SWAP1 POP JUMP JUMPDEST PUSH1 0x0 PUSH2 0xE35 DUP3 PUSH2 0xE3C JUMP JUMPDEST SWAP1 POP SWAP2 SWAP1 POP JUMP JUMPDEST PUSH1 0x0 PUSH2 0xE47 DUP3 PUSH2 0xDDC JUMP JUMPDEST SWAP1 POP SWAP2 SWAP1 POP JUMP JUMPDEST PUSH1 0x0 JUMPDEST DUP4 DUP2 LT ISZERO PUSH2 0xE6C JUMPI DUP1 DUP3 ADD MLOAD DUP2 DUP5 ADD MSTORE PUSH1 0x20 DUP2 ADD SWAP1 POP PUSH2 0xE51 JUMP JUMPDEST DUP4 DUP2 GT ISZERO PUSH2 0xE7B JUMPI PUSH1 0x0 DUP5 DUP5 ADD MSTORE JUMPDEST POP POP POP POP JUMP JUMPDEST PUSH1 0x0 PUSH1 0x2 DUP3 DIV SWAP1 POP PUSH1 0x1 DUP3 AND DUP1 PUSH2 0xE99 JUMPI PUSH1 0x7F DUP3 AND SWAP2 POP JUMPDEST PUSH1 0x20 DUP3 LT DUP2 EQ ISZERO PUSH2 0xEAD JUMPI PUSH2 0xEAC PUSH2 0xF2B JUMP JUMPDEST JUMPDEST POP SWAP2 SWAP1 POP JUMP JUMPDEST PUSH1 0x0 PUSH2 0xEBE DUP3 PUSH2 0xDFC JUMP JUMPDEST SWAP2 POP PUSH32 0xFFFFFFFFFFFFFFFFFFFFFFFFFFFFFFFFFFFFFFFFFFFFFFFFFFFFFFFFFFFFFFFF DUP3 EQ ISZERO PUSH2 0xEF1 JUMPI PUSH2 0xEF0 PUSH2 0xEFC JUMP JUMPDEST JUMPDEST PUSH1 0x1 DUP3 ADD SWAP1 POP SWAP2 SWAP1 POP JUMP JUMPDEST PUSH32 0x4E487B7100000000000000000000000000000000000000000000000000000000 PUSH1 0x0 MSTORE PUSH1 0x11 PUSH1 0x4 MSTORE PUSH1 0x24 PUSH1 0x0 REVERT JUMPDEST PUSH32 0x4E487B7100000000000000000000000000000000000000000000000000000000 PUSH1 0x0 MSTORE PUSH1 0x22 PUSH1 0x4 MSTORE PUSH1 0x24 PUSH1 0x0 REVERT JUMPDEST PUSH32 0x4E487B7100000000000000000000000000000000000000000000000000000000 PUSH1 0x0 MSTORE PUSH1 0x32 PUSH1 0x4 MSTORE PUSH1 0x24 PUSH1 0x0 REVERT JUMPDEST PUSH1 0x0 DUP1 REVERT JUMPDEST PUSH1 0x0 PUSH1 0x1F NOT PUSH1 0x1F DUP4 ADD AND SWAP1 POP SWAP2 SWAP1 POP JUMP JUMPDEST PUSH32 0x456C2062616C616E63652064656C207374616B696E6720657320646520300000 PUSH1 0x0 DUP3 ADD MSTORE POP JUMP JUMPDEST PUSH32 0x4E6F206572657320656C206F776E657200000000000000000000000000000000 PUSH1 0x0 DUP3 ADD MSTORE POP JUMP JUMPDEST PUSH32 0x4C612063616E7469646164206E6F20707565646520736572206D656E6F722061 PUSH1 0x0 DUP3 ADD MSTORE PUSH32 0x2030000000000000000000000000000000000000000000000000000000000000 PUSH1 0x20 DUP3 ADD MSTORE POP JUMP JUMPDEST PUSH2 0x1049 DUP2 PUSH2 0xDBE JUMP JUMPDEST DUP2 EQ PUSH2 0x1054 JUMPI PUSH1 0x0 DUP1 REVERT JUMPDEST POP JUMP JUMPDEST PUSH2 0x1060 DUP2 PUSH2 0xDD0 JUMP JUMPDEST DUP2 EQ PUSH2 0x106B JUMPI PUSH1 0x0 DUP1 REVERT JUMPDEST POP JUMP JUMPDEST PUSH2 0x1077 DUP2 PUSH2 0xDFC JUMP JUMPDEST DUP2 EQ PUSH2 0x1082 JUMPI PUSH1 0x0 DUP1 REVERT JUMPDEST POP JUMP INVALID LOG2 PUSH5 0x6970667358 0x22 SLT KECCAK256 SWAP8 ADDMOD 0xB1 CREATE 0x4F SWAP1 DUP5 OR GAS 0xE3 0xB6 DUP8 PUSH20 0x65C28001595BF7EFB951622A4AC3F59351BCE664 PUSH20 0x6F6C634300080500330000000000000000000000 "
				},
				"gasEstimates": {
					"creation": {
						"codeDepositCost": "856600",
						"executionCost": "infinite",
						"totalCost": "infinite"
					},
					"external": {
						"hasStaked(address)": "2911",
						"isStaking(address)": "2912",
						"issueTokens()": "infinite",
						"jamToken()": "2645",
						"name()": "infinite",
						"owner()": "2514",
						"stakeTokens(uint256)": "infinite",
						"stakers(uint256)": "5066",
						"stakingBalance(address)": "2837",
						"stellartToken()": "2579",
						"unstakeTokens()": "infinite"
					}
				},
				"methodIdentifiers": {
					"hasStaked(address)": "c93c8f34",
					"isStaking(address)": "6f49712b",
					"issueTokens()": "60ab5852",
					"jamToken()": "f416d760",
					"name()": "06fdde03",
					"owner()": "8da5cb5b",
					"stakeTokens(uint256)": "7547c7a3",
					"stakers(uint256)": "fd5e6dd1",
					"stakingBalance(address)": "45bc78ab",
					"stellartToken()": "92773cdd",
					"unstakeTokens()": "a5ce413b"
				}
			},
			"storageLayout": {
				"storage": [
					{
						"astId": 368,
						"contract": "contracts/TokenFarm.sol:TokenFarm",
						"label": "name",
						"offset": 0,
						"slot": "0",
						"type": "t_string_storage"
					},
					{
						"astId": 370,
						"contract": "contracts/TokenFarm.sol:TokenFarm",
						"label": "owner",
						"offset": 0,
						"slot": "1",
						"type": "t_address"
					},
					{
						"astId": 373,
						"contract": "contracts/TokenFarm.sol:TokenFarm",
						"label": "jamToken",
						"offset": 0,
						"slot": "2",
						"type": "t_contract(JamToken)180"
					},
					{
						"astId": 376,
						"contract": "contracts/TokenFarm.sol:TokenFarm",
						"label": "stellartToken",
						"offset": 0,
						"slot": "3",
						"type": "t_contract(StellartToken)361"
					},
					{
						"astId": 379,
						"contract": "contracts/TokenFarm.sol:TokenFarm",
						"label": "stakers",
						"offset": 0,
						"slot": "4",
						"type": "t_array(t_address)dyn_storage"
					},
					{
						"astId": 383,
						"contract": "contracts/TokenFarm.sol:TokenFarm",
						"label": "stakingBalance",
						"offset": 0,
						"slot": "5",
						"type": "t_mapping(t_address,t_uint256)"
					},
					{
						"astId": 387,
						"contract": "contracts/TokenFarm.sol:TokenFarm",
						"label": "hasStaked",
						"offset": 0,
						"slot": "6",
						"type": "t_mapping(t_address,t_bool)"
					},
					{
						"astId": 391,
						"contract": "contracts/TokenFarm.sol:TokenFarm",
						"label": "isStaking",
						"offset": 0,
						"slot": "7",
						"type": "t_mapping(t_address,t_bool)"
					}
				],
				"types": {
					"t_address": {
						"encoding": "inplace",
						"label": "address",
						"numberOfBytes": "20"
					},
					"t_array(t_address)dyn_storage": {
						"base": "t_address",
						"encoding": "dynamic_array",
						"label": "address[]",
						"numberOfBytes": "32"
					},
					"t_bool": {
						"encoding": "inplace",
						"label": "bool",
						"numberOfBytes": "1"
					},
					"t_contract(JamToken)180": {
						"encoding": "inplace",
						"label": "contract JamToken",
						"numberOfBytes": "20"
					},
					"t_contract(StellartToken)361": {
						"encoding": "inplace",
						"label": "contract StellartToken",
						"numberOfBytes": "20"
					},
					"t_mapping(t_address,t_bool)": {
						"encoding": "mapping",
						"key": "t_address",
						"label": "mapping(address => bool)",
						"numberOfBytes": "32",
						"value": "t_bool"
					},
					"t_mapping(t_address,t_uint256)": {
						"encoding": "mapping",
						"key": "t_address",
						"label": "mapping(address => uint256)",
						"numberOfBytes": "32",
						"value": "t_uint256"
					},
					"t_string_storage": {
						"encoding": "bytes",
						"label": "string",
						"numberOfBytes": "32"
					},
					"t_uint256": {
						"encoding": "inplace",
						"label": "uint256",
						"numberOfBytes": "32"
					}
				}
			},
			"userdoc": {
				"kind": "user",
				"methods": {},
				"version": 1
			}
		}
	}
}